:040000003BEF00F0E2
:100008005A82FACF51F0FBCF52F09DA60EEF00F0C6
:1000180010EF00F025EF00F09EA615EF00F017EFA7
:1000280000F025EF00F002D823EF00F00500FA6E8B
:100038000B50FD6E0C50FE6EFF6AFA50120035EF41
:1000480000F0A0A62AEF00F02CEF00F035EF00F04A
:10005800A1A631EF00F033EF00F035EF00F017EF15
:1000680000F052C0FBFF51C0FAFF5A92110030EF66
:020078000FF087
:0510000000256900005D
:10100600010E566E5350D8B40BEF08F00DEF08F0F2
:101016001DEF08F05350D96EDA6ADF30E832E83255
:10102600070B546E070E54641BEF08F01DEF08F013
:1010360039EF09F0566A4FEF09F05350D96EDA6A64
:10104600DF30E832E832070B546E010E556E542A33
:101056002FEF08F0D8905536542E2DEF08F0555046
:10106600FF0A92164FEF09F05350D96EDA6ADF3055
:10107600E832E832070B546E010E556E542A46EFDD
:1010860008F0D8905536542E44EF08F05550FF0A14
:1010960093164FEF09F05350D96EDA6ADF30E83213
:1010A600E832070B546E010E556E542A5DEF08F0B8
:1010B600D8905536542E5BEF08F05550FF0A94161B
:1010C6004FEF09F05350D96EDA6ADF30E832E83272
:1010D600070B546E010E556E542A74EF08F0D89023
:1010E6005536542E72EF08F05550FF0A95164FEFFD
:1010F60009F05350D96EDA6ADF30E832E832070B6E
:10110600546E010E556E542A8BEF08F0D890553662
:10111600542E89EF08F05550FF0A96164FEF09F046
:101126005350D96EDA6ADF50070B000AD8B420EFA5
:1011360008F0010AD8B437EF08F0030AD8B44EEF26
:1011460008F0010AD8B465EF08F0070AD8B47CEFB6
:1011560008F01DEF08F05350D96EDA6ADF30E83236
:10116600E832070B546E010E556E542ABDEF08F097
:10117600D8905536542EBBEF08F0555092121DEFFD
:1011860008F05350D96EDA6ADF30E832E832070BDE
:10119600546E010E556E542AD3EF08F0D89055368A
:1011A600542ED1EF08F0555093121DEF08F053500E
:1011B600D96EDA6ADF30E832E832070B546E010E78
:1011C600556E542AE9EF08F0D8905536542EE7EFBD
:1011D60008F0555094121DEF08F05350D96EDA6A94
:1011E600DF30E832E832070B546E010E556E542A92
:1011F600FFEF08F0D8905536542EFDEF08F0555005
:1012060095121DEF08F05350D96EDA6ADF30E832D6
:10121600E832070B546E010E556E542A15EF09F08D
:10122600D8905536542E13EF09F0555096121DEFEF
:1012360008F01DEF08F05350D96EDA6ADF50070B3D
:10124600000AD8B4AEEF08F0010AD8B4C4EF08F02B
:10125600030AD8B4DAEF08F0010AD8B4F0EF08F0C0
:10126600070AD8B406EF09F01CEF09F05350D96EFF
:10127600DA6ADFBC41EF09F044EF09F0010E45EFF1
:1012860009F0000E000AD8B493EF08F0010AD8B4AA
:101296001EEF09F01DEF08F056501200010E576EB2
:1012A6005350D8B459EF09F05BEF09F06BEF09F032
:1012B6005350D96EDA6ADF30E832E832070B556EE2
:1012C600070E556469EF09F06BEF09F085EF0AF038
:1012D600576A9AEF0AF05350D96EDA6ADF30E8326D
:1012E600E832070B556E010E566E552A7DEF09F052
:1012F600D8905636552E7BEF09F05650FF0A8916C0
:101306009AEF0AF05350D96EDA6ADF30E832E832E3
:10131600070B556E010E566E552A94EF09F0D890BC
:101326005636552E92EF09F05650FF0A8A169AEF56
:101336000AF05350D96EDA6ADF30E832E832070B2A
:10134600556E010E566E552AABEF09F0D8905636FB
:10135600552EA9EF09F05650FF0A8B169AEF0AF0A0
:101366005350D96EDA6ADF30E832E832070B556E31
:10137600010E566E552AC2EF09F0D8905636552EF4
:10138600C0EF09F05650FF0A8C169AEF0AF0535038
:10139600D96EDA6ADF30E832E832070B556E010E95
:1013A600566E552AD9EF09F0D8905636552ED7EFF6
:1013B60009F05650FF0A8D169AEF0AF05350D96E6F
:1013C600DA6ADF50070B000AD8B46EEF09F0010A9B
:1013D600D8B485EF09F0030AD8B49CEF09F0010AE6
:1013E600D8B4B3EF09F0070AD8B4CAEF09F06BEF27
:1013F60009F05350D96EDA6ADF30E832E832070B6B
:10140600556E010E566E552A0BEF0AF0D8905636D9
:10141600552E09EF0AF0565089129AEF0AF05350EA
:10142600D96EDA6ADF30E832E832070B556E010E04
:10143600566E552A21EF0AF0D8905636552E1FEFD4
:101446000AF056508A129AEF0AF05350D96EDA6AA9
:10145600DF30E832E832070B556E010E566E552A1C
:1014660037EF0AF0D8905636552E35EF0AF056501B
:101476008B129AEF0AF05350D96EDA6ADF30E832EF
:10148600E832070B556E010E566E552A4DEF0AF0DF
:10149600D8905636552E4BEF0AF056508C129AEFCE
:1014A6000AF05350D96EDA6ADF30E832E832070BB9
:1014B600556E010E566E552A63EF0AF0D8905636D1
:1014C600552E61EF0AF056508D129AEF0AF05350DE
:1014D600D96EDA6ADF50070B000AD8B4FCEF09F0C0
:1014E600010AD8B412EF0AF0030AD8B428EF0AF0BA
:1014F600010AD8B43EEF0AF0070AD8B454EF0AF04E
:101506006BEF09F05450556E566A5650000AD8B41F
:101516008FEF0AF06BEF09F05550000AD8B4E1EFEF
:1015260009F0010AD8B46AEF0AF06BEF09F05750D8
:101536001200E3EC10F0F28EF28CF28C61EC0FF0FC
:10154600700E536E220E546E04EC11F04D0E586E52
:1015560090EC0FF0296E4C0E586E90EC0FF0296E41
:101566004B0E586E90EC0FF0296E4A0E576EA4EC97
:101576000EF0296E490E576EA4EC0EF0296E470E3A
:101586000001C46F17EC10F0296E450E0001C46F00
:1015960017EC10F0296EBB0E0001C46FBBEC0FF008
:1015A600296EB60E0001C46FBBEC0FF0296EC00E9B
:1015B600576E89EC10F0296E4D0E536E010E546E67
:1015C60051EC09F0296E4C0E536E010E546E51EC1F
:1015D60009F0296EBB0E0001C76F2AC053F0546A8A
:1015E600000E566E0A0E556EE0EC0CF053500001DC
:1015F600C86FFAEC0EF0296EB60E0001C76F2AC04E
:1016060053F0546A000E566E0A0E556E4DEC0EF0EF
:1016160053500001C86FFAEC0EF0296E140E2A60C2
:1016260017EF0BF019EF0BF02FEF0BF0470E586E7C
:10163600FCEC0FF0296E450E586EE1EC0FF0296EAA
:101646004A0E586E9DEC0DF0296E490E586EF5EC5B
:101656000DF0296E73EF0BF0130E2A6435EF0BF0C5
:1016660037EF0BF055EF0BF01E0E2A603DEF0BF037
:101676003FEF0BF055EF0BF0470E586EE1EC0FF015
:10168600296E450E586EE1EC0FF0296E4A0E586E23
:10169600F5EC0DF0296E490E586EF5EC0DF0296E3D
:1016A60073EF0BF01D0E2A645BEF0BF05DEF0BF092
:1016B60073EF0BF0470E586EE1EC0FF0296E450EF6
:1016C600586EFCEC0FF0296E4A0E586EF5EC0DF0D4
:1016D600296E490E586E9DEC0DF0296E73EF0BF0D6
:1016E600C00E586E3E0E596E42EC0DF0296E3E50FD
:1016F600D8A480EF0BF082EF0BF08AEF0BF04B0EC5
:10170600536E010E546E51EC09F0EDEF0AF03E04F3
:10171600D8A490EF0BF092EF0BF09AEF0BF04B0E74
:10172600536E000E546E51EC09F0EDEF0AF0EDEF3A
:101736000AF03BEF00F0010E576E5350D8B4A6EFF7
:101746000BF0A8EF0BF0C0EF0BF05350D96EDA6A2E
:10175600DF30E832E832070B556E080E5560B6EFFB
:101766000BF0B8EF0BF0C0EF0BF05450D8A4BEEF5F
:101776000BF0C0EF0BF045EF0CF0576A60EF0CF082
:101786005450D96EDA6A5350E16EE26AE730E832B5
:10179600E832070B556E80CF56F0552AD5EF0BF081
:1017A600D8905632552ED3EF0BF05650010BDF6E04
:1017B60060EF0CF05450D96EDA6A5350E16EE26A6B
:1017C600E730E832E832070B556E81CF56F0552ADE
:1017D600EFEF0BF0D8905632552EEDEF0BF056503A
:1017E600010BDF6E60EF0CF05450D96EDA6A53507D
:1017F600E16EE26AE730E832E832070B556E82CFD7
:1018060056F0552A09EF0CF0D8905632552E07EFB0
:101816000CF05650010BDF6E60EF0CF05450D96E91
:10182600DA6A5350E16EE26AE730E832E832070BD3
:10183600556E83CF56F0552A23EF0CF0D8905632CA
:10184600552E21EF0CF05650010BDF6E60EF0CF0B9
:101856005450D96EDA6A5350E16EE26AE730E832E4
:10186600E832070B556E84CF56F0552A3DEF0CF043
:10187600D8905632552E3BEF0CF05650010BDF6ECA
:1018860060EF0CF05350D96EDA6ADF50070B000A8E
:10189600D8B4C3EF0BF0010AD8B4DDEF0BF0030A9E
:1018A600D8B4F7EF0BF0010AD8B411EF0CF0070A21
:1018B600D8B42BEF0CF0C0EF0BF0575012003FECF2
:1018C60011F0D9EC10F00009D8B46CEF0CF06EEF03
:1018D6000CF080EF0CF0CFEC10F00009D8B476EFE6
:1018E6000CF078EF0CF07CEF0CF0010E2B6EC0EFD5
:1018F6000CF0020E2B6EC0EF0CF0CFEC10F00009CE
:10190600D8B488EF0CF08AEF0CF08EEF0CF0030ED3
:101916002B6EC0EF0CF0040E2B6EC0EF0CF073ECC8
:1019260010F0BBEC10F00009D8B49CEF0CF09EEF61
:101936000CF0DDEF0CF047EC10F0DDEF0CF073EC83
:1019460010F0DDEF0CF0BBEC10F00009D8B4AEEFF0
:101956000CF0B0EF0CF0DDEF0CF09EEF0CF0C5ECE8
:1019660010F00009D8B4BAEF0CF0BCEF0CF0DDEFC4
:101976000CF05DEC10F0DDEF0CF02B504F6E506A62
:101986005050000AD8B4CAEF0CF0DDEF0CF04F50FF
:10199600010AD8B492EF0CF0030AD8B4A2EF0CF007
:1019A600010AD8B4A6EF0CF0070AD8B4B2EF0CF0CF
:1019B600DDEF0CF03DEC11F012000001C46B56BED9
:1019C600E9EF0CF0E7EF0CF0EFEF0CF0556C561E5C
:1019D600D8B0562A010EC46F54BEF6EF0CF0F4EFE1
:1019E6000CF0FCEF0CF0536C541ED8B0542A010EC8
:1019F600C41B000EC66F000EC56F55505610D8B4E6
:101A060007EF0DF009EF0DF031EF0DF0010EC36F8A
:101A160011EF0DF0D89055365636C32B56AE16EF4D
:101A26000DF018EF0DF00DEF0DF0D890C537C63755
:101A36005550535C56505458D8A024EF0DF026EF5D
:101A46000DF02BEF0DF05550535E5650545AC5818C
:101A5600D89056325532C32F18EF0DF0C451D8B472
:101A660037EF0DF039EF0DF03DEF0DF0C56DC61FE8
:101A7600D8B0C62BC5C053F0C6C054F01200000142
:101A8600C56B5850D8B44AEF0DF04CEF0DF054EF3B
:101A96000DF05950D8A452EF0DF054EF0DF057EF5A
:101AA6000DF0C46B9BEF0DF058C053F0C50E546E8D
:101AB6009EEC0BF05850D96EDA6A020ED926DF502A
:101AC600D8A468EF0DF06AEF0DF080EF0DF000017D
:101AD600C505D8A471EF0DF073EF0DF079EF0DF099
:101AE6005950D96EDA6ADF6A98EF0DF05950D96EFF
:101AF600DA6A010EDF6E98EF0DF05850D96EDA6A89
:101B0600020ED926DE04D8A48BEF0DF08DEF0DF072
:101B160098EF0DF00001C551D8A494EF0DF096EFA3
:101B26000DF079EF0DF073EF0DF0010E0001C46FAB
:101B3600C4511200010E0001C36F5850D8B4A6EF6D
:101B46000DF0A8EF0DF0C4EF0DF05850D96EDA6A1B
:101B5600DF38070B596E080E5960B4EF0DF0B6EF7B
:101B66000DF0C4EF0DF05850D96EDA6ADF500F0B46
:101B7600596E040E5964C2EF0DF0C4EF0DF0C7EFB5
:101B86000DF0C36BF2EF0DF03CC0C4F05850D96EA7
:101B9600DA6ADF500F0B596EC4515918F80B5918F1
:101BA600C46F5850D96EDA6ADF38070B596E59463A
:101BB60059465946C4515918C70B5918C46FC49D84
:101BC6005850D96EDA6ADFAE02D0C48F02D0000157
:101BD600C49FC40E536E010E546E51EC09F0000101
:101BE600C3511200010E0001C36F5850D8B4FEEF66
:101BF6000DF000EF0EF01CEF0EF05850D96EDA6AB9
:101C0600DF38070B596E080E59600CEF0EF00EEF19
:101C16000EF01CEF0EF05850D96EDA6ADF500F0B3B
:101C2600596E040E59641AEF0EF01CEF0EF01FEFFA
:101C36000EF0C36B4AEF0EF03BC0C4F05850D96E9D
:101C4600DA6ADF500F0B596EC4515918F80B591840
:101C5600C46F5850D96EDA6ADF38070B596E594689
:101C660059465946C4515918C70B5918C46FC49DD3
:101C76005850D96EDA6ADFAE02D0C48F02D00001A6
:101C8600C49FC40E536E000E546E51EC09F0000151
:101C9600C3511200586A54BE55EF0EF053EF0EF0C2
:101CA6005BEF0EF0536C541ED8B0542A010E586EDA
:101CB60056BE62EF0EF060EF0EF066EF0EF0556C5A
:101CC600561ED8B0562A55505610D8B46DEF0EF0A1
:101CD6006FEF0EF093EF0EF0010E576E77EF0EF0EA
:101CE600D89055365636572A56AE7CEF0EF07EEF14
:101CF6000EF073EF0EF05550535C56505458D8A062
:101D060087EF0EF089EF0EF08DEF0EF05550535E13
:101D16005650545AD89056325532572E7EEF0EF002
:101D26005850D8B499EF0EF09BEF0EF09FEF0EF0DF
:101D3600536C541ED8B0542A53C053F054C054F0B8
:101D46001200010E0001C36F5750D8B4ADEF0EF06C
:101D5600AFEF0EF0CBEF0EF05750D96EDA6ADF38E0
:101D6600070B586E080E5860BBEF0EF0BDEF0EF075
:101D7600CBEF0EF05750D96EDA6ADF500F0B586E64
:101D8600040E5864C9EF0EF0CBEF0EF0CEEF0EF056
:101D9600C36BF7EF0EF03DC0C4F05750D96EDA6A48
:101DA600DF500F0B586EC4515818F80B5818C46FF3
:101DB6005750D96EDA6ADF38070B586E58465846C0
:101DC6005846C4515818C70B5818C46FC49D57506D
:101DD600D96EDA6ADFAE02D0C48F02D00001C49F8A
:101DE600C40E536E03EC08F00001C351120000014B
:101DF600C751D8A401EF0FF003EF0FF006EF0FF075
:101E0600596A2EEF0FF0C7C053F0C851010B546E3C
:101E160051EC09F00001C729536ED890C831010B67
:101E2600546E51EC09F00001C751020F536EC841C0
:101E3600E8423F0B010B546E51EC09F00001C7510B
:101E4600030F536EC839E8461F0B010B546E51EC55
:101E560009F0010E596E59501200620EF66E200EF0
:101E6600F76E000EF86E00EE97F010EE2CF00900FB
:101E7600F5CFEEFFE550E150FAE1E60EF66E210EE3
:101E8600F76E000EF86E00EE41F010EE0DF0090050
:101E9600F5CFEEFFE550E150FAE100EE60F0370EC7
:101EA600EE6AE806FDE100EE01F0400EEE6AE80695
:101EB600FDE15A905A9200019CEF0AF0ADEC10F049
:101EC600700E24EC11F07F0E20EC11F0C40E536E50
:101ED600180E546E09EC11F0000E536E000E546E7F
:101EE6000EEC11F0500E536E220E546EFAEC10F0FA
:101EF600600E536E220E546E04EC11F0680E536E93
:101F0600220E546E13EC11F0000E536E000E546E3A
:101F1600FFEC10F03BEC11F01200010E0001C36F54
:101F26005850D8B499EF0FF09BEF0FF0ABEF0FF0CE
:101F36005850D96EDA6ADF30E832E832070B596E4C
:101F4600070E5964A9EF0FF0ABEF0FF0AEEF0FF0ED
:101F5600C36BB8EF0FF058C053F003EC08F058C04D
:101F660053F0000E546E51EC09F00001C3511200FB
:101F76000001C451D8A4C2EF0FF0C4EF0FF0C7EFB1
:101F86000FF0C56BDFEF0FF0C4C058F090EC0FF008
:101F96000001C429586E90EC0FF00001C451020FE5
:101FA600586E90EC0FF00001C451030F586E90EC80
:101FB6000FF0010E0001C56FC55112005850D8A48C
:101FC600E7EF0FF0E9EF0FF0ECEF0FF0596AFAEFD9
:101FD6000FF058C053F0000E546E51EC09F058281B
:101FE600536E000E546E51EC09F0010E596E5950A5
:101FF60012005850D8A402EF10F004EF10F007EFCB
:1020060010F0596A15EF10F058C053F0010E546ED7
:1020160051EC09F05828536E000E546E51EC09F03D
:10202600010E596E595012000001C451D8A41EEF7A
:1020360010F020EF10F023EF10F0C56B2FEF10F02B
:10204600C4C058F090EC0FF00001C429586E90EC13
:102056000FF0010E0001C56FC55112003738392F38
:102066003435362A3132332D23303D2B808182831D
:1020760084898A8B8C8D9293949596323A040C00BF
:10208600030B131B0079010007500810D8B44EEF5C
:1020960010F050EF10F05CEF10F002D85CEF10F08B
:1020A6000500FA6E0750FD6E0850FE6EFF6AFA5084
:1020B6001200120009500A10D8B464EF10F066EF4F
:1020C60010F072EF10F002D872EF10F00500FA6E01
:1020D6000950FD6E0A50FE6EFF6AFA501200120099
:1020E60005500610D8B47AEF10F07CEF10F088EFA8
:1020F60010F002D888EF10F00500FA6E0550FD6E5C
:102106000650FE6EFF6AFA50120012005750D8A40D
:102116008FEF10F091EF10F094EF10F0586A9AEFED
:1021260010F057C053F003EC08F0010E586E5850EB
:1021360012008D6A8C6A896A8A6A8B6A070E966EA5
:1021460092689368946895687E681F0E7F6E7C6AB5
:10215600F18E1200C6BAB2EF10F0B4EF10F0BAEF7B
:1021660010F0800EC76E060EC612C56AC68A120029
:10217600C7A0C0EF10F0C3EF10F0010EC4EF10F0CF
:10218600000E1200C7B0CAEF10F0CDEF10F0010E2E
:10219600CEEF10F0000E1200C7B4D4EF10F0D7EF58
:1021A60010F0010ED8EF10F0000E1200C7AADEEFF5
:1021B60010F0E1EF10F0010EE2EF10F0000E120049
:1021C6001CEC11F0ECEC10F09CEC10F018EC11F09B
:1021D6001200800EC76E060EC612C56AC69A120097
:0D21E60001010101122A020A7363312B234B
:1021F40053C007F054C008F0120053C001F054C09B
:1022040002F0120053C009F054C00AF0120053C087
:102214000BF054C00CF0120053C003F054C004F08F
:10222400120053C005F054C006F01200300ED36EF5
:102234009B6A1200D08E9F86A2861200536E53C0F2
:1022440077FF1200536E53C0C8FF12002E502CECBF
:1022540011F012004E6E4EC0C9FF120041EC11F095
:102264002D6E120041EC11F02C6E1200C9CF2AF031
:1022740012009D861200C68812009E961200C95054
:02228400120046
:020000040030CA
:0E000000FF021F1EFF8B85FF0FC00FE00F4099
:00000001FF
