:040000003BEF00F0E2
:100008005A82FACF3CF0FBCF3DF09DA60EEF00F0F0
:1000180010EF00F025EF00F09EA615EF00F017EFA7
:1000280000F025EF00F002D823EF00F00500FA6E8B
:100038001D50FD6E1E50FE6EFF6AFA50120035EF1D
:1000480000F0A0A62AEF00F02CEF00F035EF00F04A
:10005800A1A631EF00F033EF00F035EF00F017EF15
:1000680000F03DC0FBFF3CC0FAFF5A921100CFEFF1
:020078000FF087
:1010000000456E7465722074686520706173737733
:101010006F72640057726F6E672070617373776FC1
:1010200072642121210025690000010E416E3E50AD
:10103000D8B41DEF08F01FEF08F02FEF08F03E5076
:10104000D96EDA6ADF30E832E832070B3F6E070EFE
:101050003F642DEF08F02FEF08F04BEF09F0416AE5
:1010600061EF09F03E50D96EDA6ADF30E832E832DB
:10107000070B3F6E010E406E3F2A41EF08F0D890FB
:1010800040363F2E3FEF08F04050FF0A921661EFC6
:1010900009F03E50D96EDA6ADF30E832E832070BE9
:1010A0003F6E010E406E3F2A58EF08F0D890403650
:1010B0003F2E56EF08F04050FF0A931661EF09F0FB
:1010C0003E50D96EDA6ADF30E832E832070B3F6E05
:1010D000010E406E3F2A6FEF08F0D89040363F2E49
:1010E0006DEF08F04050FF0A941661EF09F03E5092
:1010F000D96EDA6ADF30E832E832070B3F6E010E54
:10110000406E3F2A86EF08F0D89040363F2E84EF9D
:1011100008F04050FF0A951661EF09F03E50D96E75
:10112000DA6ADF30E832E832070B3F6E010E406EBC
:101130003F2A9DEF08F0D89040363F2E9BEF08F0F5
:101140004050FF0A961661EF09F03E50D96EDA6AF8
:10115000DF50070B000AD8B432EF08F0010AD8B408
:1011600049EF08F0030AD8B460EF08F0010AD8B4D8
:1011700077EF08F0070AD8B48EEF08F02FEF08F0E9
:101180003E50D96EDA6ADF30E832E832070B3F6E44
:10119000010E406E3F2ACFEF08F0D89040363F2E28
:1011A000CDEF08F0405092122FEF08F03E50D96E6C
:1011B000DA6ADF30E832E832070B3F6E010E406E2C
:1011C0003F2AE5EF08F0D89040363F2EE3EF08F0D5
:1011D000405093122FEF08F03E50D96EDA6ADF309C
:1011E000E832E832070B3F6E010E406E3F2AFBEFFC
:1011F00008F0D89040363F2EF9EF08F04050941296
:101200002FEF08F03E50D96EDA6ADF30E832E8326C
:10121000070B3F6E010E406E3F2A11EF09F0D89088
:1012200040363F2E0FEF09F0405095122FEF08F097
:101230003E50D96EDA6ADF30E832E832070B3F6E93
:10124000010E406E3F2A27EF09F0D89040363F2E1E
:1012500025EF09F0405096122FEF08F02FEF08F01D
:101260003E50D96EDA6ADF50070B000AD8B4C0EFDF
:1012700008F0010AD8B4D6EF08F0030AD8B4ECEFAE
:1012800008F0010AD8B402EF09F0070AD8B418EF41
:1012900009F02EEF09F03E50D96EDA6ADFBC53EF49
:1012A00009F056EF09F0010E57EF09F0000E000AA1
:1012B000D8B4A5EF08F0010AD8B430EF09F02FEF49
:1012C00008F041501200010E426E3E50D8B46BEF50
:1012D00009F06DEF09F07DEF09F03E50D96EDA6A42
:1012E000DF30E832E832070B406E070E40647BEFD8
:1012F00009F07DEF09F097EF0AF0426AACEF0AF0CF
:101300003E50D96EDA6ADF30E832E832070B406EC1
:10131000010E416E402A8FEF09F0D8904136402EE1
:101320008DEF09F04150FF0A8916ACEF0AF03E50EC
:10133000D96EDA6ADF30E832E832070B406E010E10
:10134000416E402AA6EF09F0D8904136402EA4EF16
:1013500009F04150FF0A8A16ACEF0AF03E50D96EF0
:10136000DA6ADF30E832E832070B406E010E416E78
:10137000402ABDEF09F0D8904136402EBBEF09F06E
:101380004150FF0A8B16ACEF0AF03E50D96EDA6A74
:10139000DF30E832E832070B406E010E416E402A22
:1013A000D4EF09F0D8904136402ED2EF09F04150E9
:1013B000FF0A8C16ACEF0AF03E50D96EDA6ADF30C5
:1013C000E832E832070B406E010E416E402AEBEF27
:1013D00009F0D8904136402EE9EF09F04150FF0A5C
:1013E0008D16ACEF0AF03E50D96EDA6ADF50070B6B
:1013F000000AD8B480EF09F0010AD8B497EF09F0D9
:10140000030AD8B4AEEF09F0010AD8B4C5EF09F069
:10141000070AD8B4DCEF09F07DEF09F03E50D96E31
:10142000DA6ADF30E832E832070B406E010E416EB7
:10143000402A1DEF0AF0D8904136402E1BEF0AF0EB
:1014400041508912ACEF0AF03E50D96EDA6ADF30B3
:10145000E832E832070B406E010E416E402A33EF4E
:101460000AF0D8904136402E31EF0AF041508A12EE
:10147000ACEF0AF03E50D96EDA6ADF30E832E8327B
:10148000070B406E010E416E402A49EF0AF0D890DA
:101490004136402E47EF0AF041508B12ACEF0AF074
:1014A0003E50D96EDA6ADF30E832E832070B406E20
:1014B000010E416E402A5FEF0AF0D8904136402E6F
:1014C0005DEF0AF041508C12ACEF0AF03E50D96E3D
:1014D000DA6ADF30E832E832070B406E010E416E07
:1014E000402A75EF0AF0D8904136402E73EF0AF08B
:1014F00041508D12ACEF0AF03E50D96EDA6ADF50DF
:10150000070B000AD8B40EEF0AF0010AD8B424EF92
:101510000AF0030AD8B43AEF0AF0010AD8B450EF3F
:101520000AF0070AD8B466EF0AF07DEF09F03F50E1
:10153000406E416A4150000AD8B4A1EF0AF07DEF35
:1015400009F04050000AD8B4F3EF09F0010AD8B40A
:101550007CEF0AF07DEF09F0425012000EEC12F021
:10156000F28EF28CF28C30EC10F0C20E3E6E240E35
:101570003F6E28EC12F0D10E496E12EC0DF0346E75
:10158000CA0E466E00EC10F0346E550E466E6EECD0
:1015900011F0346E590E426E92EC0EF0346E580E0D
:1015A000426E92EC0EF0346ED10E4D6E010E4E6E08
:1015B000030E4F6E010E506E2FEC0FF0346E570E6F
:1015C000436EB9EC10F0346E386A10EF0BF0CA0EAF
:1015D000436E380E446E86EC0DF0346E810E356429
:1015E000F4EF0AF0F6EF0AF0FFEF0AF0570E3E6E46
:1015F000000E3F6E63EC09F0346E10EF0BF0820EBC
:10160000356005EF0BF007EF0BF010EF0BF0570E06
:101610003E6E010E3F6E63EC09F0346E10EF0BF07E
:101620003850D8B416EF0BF018EF0BF0E7EF0AF0D4
:1016300069EF0BF0810E356420EF0BF022EF0BF019
:101640002BEF0BF0570E3E6E000E3F6E63EC09F071
:10165000346E3AEF0BF0820E356031EF0BF033EF62
:101660000BF03AEF0BF0570E3E6E010E3F6E63EC3F
:1016700009F0346E060E0001DB6F950EDA6F8C0EEA
:10168000E82EFED7DA2FFCD7DB2FFAD70000335035
:10169000600FD96EDA6A38C0DFFFD10E4D6E020ED0
:1016A0004E6E3350020F4F6E2A0E506EE2EC10F069
:1016B000346E332A030E0001DB6F8A0EDA6F550E8B
:1016C000E82EFED7DA2FFCD7DB2FFAD700F000F098
:1016D000386A3850D8A46FEF0BF071EF0BF01AEFA7
:1016E0000BF0070E3318D8A478EF0BF07AEF0BF05D
:1016F000E4EF0AF0D10E466E010E476E8CEC10F04E
:10170000346E1A0E0001DA6FF80EE82EFED7DA2FCB
:10171000FCD70000326AA1EF0BF03250B40FD96E43
:10172000DA6A3250600FE16EE26ADE50E618D8B431
:101730009CEF0BF09EEF0BF0A0EF0BF09DEC0FF089
:10174000322A3350325CD8A0A8EF0BF0AAEF0BF08E
:101750008DEF0BF0590E436E3DEC0EF0346E580ECB
:10176000436EE8EC0DF0346E550E436E3BEC11F019
:10177000346E100E0001DB6F390EDA6F0D0EE82E9D
:10178000FED7DA2FFCD7DB2FFAD700F000F0550E8A
:10179000436E20EC11F0346EE4EF0AF03BEF00F002
:1017A000010E426E3E50D8B4D8EF0BF0DAEF0BF0DA
:1017B000F2EF0BF03E50D96EDA6ADF30E832E832F1
:1017C000070B406E080E4060E8EF0BF0EAEF0BF0FD
:1017D000F2EF0BF03F50D8A4F0EF0BF0F2EF0BF06C
:1017E00077EF0CF0426A92EF0CF03F50D96EDA6A54
:1017F0003E50E16EE26AE730E832E832070B406EB5
:1018000080CF41F0402A07EF0CF0D8904132402EB3
:1018100005EF0CF04150010BDF6E92EF0CF03F50E2
:10182000D96EDA6A3E50E16EE26AE730E832E832B9
:10183000070B406E81CF41F0402A21EF0CF0D89089
:101840004132402E1FEF0CF04150010BDF6E92EF42
:101850000CF03F50D96EDA6A3E50E16EE26AE73032
:10186000E832E832070B406E82CF41F0402A3BEF6E
:101870000CF0D8904132402E39EF0CF04150010B62
:10188000DF6E92EF0CF03F50D96EDA6A3E50E16E97
:10189000E26AE730E832E832070B406E83CF41F06E
:1018A000402A55EF0CF0D8904132402E53EF0CF007
:1018B0004150010BDF6E92EF0CF03F50D96EDA6AA7
:1018C0003E50E16EE26AE730E832E832070B406EE4
:1018D00084CF41F0402A6FEF0CF0D8904132402E77
:1018E0006DEF0CF04150010BDF6E92EF0CF03E50AB
:1018F000D96EDA6ADF50070B000AD8B4F5EF0BF0A7
:10190000010AD8B40FEF0CF0030AD8B429EF0CF099
:10191000010AD8B443EF0CF0070AD8B45DEF0CF01D
:10192000F2EF0BF04250120068EC12F004EC12F0EF
:101930000009D8B49EEF0CF0A0EF0CF0B2EF0CF061
:10194000FAEC11F00009D8B4A8EF0CF0AAEF0CF0F3
:10195000AEEF0CF0010E2E6EF2EF0CF0020E2E6EBA
:10196000F2EF0CF0FAEC11F00009D8B4BAEF0CF079
:10197000BCEF0CF0C0EF0CF0030E2E6EF2EF0CF08B
:10198000040E2E6EF2EF0CF0B1EC11F0E6EC11F05B
:101990000009D8B4CEEF0CF0D0EF0CF00FEF0DF043
:1019A00085EC11F00FEF0DF0B1EC11F00FEF0DF031
:1019B000E6EC11F00009D8B4E0EF0CF0E2EF0CF027
:1019C0000FEF0DF0D0EF0CF0F0EC11F00009D8B4EF
:1019D000ECEF0CF0EEEF0CF00FEF0DF09BEC11F0D4
:1019E0000FEF0DF02E503A6E3B6A3B50000AD8B410
:1019F000FCEF0CF00FEF0DF03A50010AD8B4C4EF31
:101A00000CF0030AD8B4D4EF0CF0010AD8B4D8EF24
:101A10000CF0070AD8B4E4EF0CF00FEF0DF066EC11
:101A200012F012004B6A4950D8A419EF0DF01BEFC9
:101A30000DF01EEF0DF04C6A84EF0DF04928436E57
:101A4000B9EC10F04C6E49C043F0B9EC10F04C6E9C
:101A50004B6A49504B24020F436EB9EC10F04B2AED
:101A6000030E4B6436EF0DF038EF0DF029EF0DF05B
:101A7000270E4A6EF50EE82EFED74A2EFCD7000040
:101A800049C046F0380E476E8CEC10F00B0E4A6ED3
:101A9000A50EE82EFED74A2EFCD7000049C046F01E
:101AA000380E476E8CEC10F0420EE82EFED700F098
:101AB00000F049C046F0380E476E8CEC10F049C07B
:101AC00046F0010E476E8CEC10F049C046F0020E55
:101AD000476E8CEC10F049C046F0060E476E8CEC59
:101AE00010F049C046F00C0E476E8CEC10F049C067
:101AF00046F0280E476E8CEC10F049C046F0800E80
:101B0000476E8CEC10F04C6E4C501200486A496ADB
:101B1000466A4350D8B48FEF0DF091EF0DF099EF76
:101B20000DF04450D8A497EF0DF099EF0DF09CEF15
:101B30000DF0456AE6EF0DF0486A466A43504624C8
:101B40003E6E000E3F6E63EC09F0462A030E4664BB
:101B5000ACEF0DF0AEEF0DF09EEF0DF043504824CA
:101B60003E6E010E3F6E63EC09F0496A4350492412
:101B7000040F3E6E470E3F6ED0EC0BF04704D8A426
:101B8000C4EF0DF0C6EF0DF0D2EF0DF04850030D8D
:101B9000F350A80F4924D96EDA6A4450E16EE26A24
:101BA000DFCFE7FF492A020E4964D9EF0DF0DBEFE2
:101BB0000DF0B6EF0DF0482A030E4864E2EF0DF089
:101BC000E4EF0DF09DEF0DF0010E456E4550120053
:101BD000010E456E4350D8B4F0EF0DF0F2EF0DF06A
:101BE0000EEF0EF04350D96EDA6ADF38070B446E01
:101BF000080E4460FEEF0DF000EF0EF00EEF0EF059
:101C00004350D96EDA6ADF500F0B446E040E446401
:101C10000CEF0EF00EEF0EF011EF0EF0456A3BEFF9
:101C20000EF027C046F04350D96EDA6ADF500F0B32
:101C3000446E46504418F80B4418466E4350D96E13
:101C4000DA6ADF38070B446E444644464446465041
:101C50004418C70B4418466E469C4350D96EDA6A46
:101C6000DFAE02D0468E01D0469E460E3E6E010E7D
:101C70003F6E63EC09F045501200010E456E435073
:101C8000D8B445EF0EF047EF0EF063EF0EF043507F
:101C9000D96EDA6ADF38070B446E080E446053EFE2
:101CA0000EF055EF0EF063EF0EF04350D96EDA6A86
:101CB000DF500F0B446E040E446461EF0EF063EFCF
:101CC0000EF066EF0EF0456A90EF0EF026C046F07B
:101CD0004350D96EDA6ADF500F0B446E46504418F9
:101CE000F80B4418466E4350D96EDA6ADF38070B9A
:101CF000446E44464446444646504418C70B441874
:101D0000466E469C4350D96EDA6ADFAE02D0468EEC
:101D100001D0469E460E3E6E000E3F6E63EC09F00B
:101D200045501200010E446E4250D8B49AEF0EF0A6
:101D30009CEF0EF0B8EF0EF04250D96EDA6ADF3841
:101D4000070B436E080E4360A8EF0EF0AAEF0EF0EB
:101D5000B8EF0EF04250D96EDA6ADF500F0B436EC7
:101D6000040E4364B6EF0EF0B8EF0EF0BBEF0EF0CA
:101D7000446AE3EF0EF028C045F04250D96EDA6AAB
:101D8000DF500F0B436E45504318F80B4318456E58
:101D90004250D96EDA6ADF38070B436E434643463A
:101DA000434645504318C70B4318456E459C425067
:101DB000D96EDA6ADFAE02D0458E01D0459E450E5F
:101DC0003E6E15EC08F0445012004C6A4B06495028
:101DD000D8A4EDEF0EF0EFEF0EF01AEF0FF04C6A13
:101DE0002DEF0FF049C046F04B50800F476E8CEC42
:101DF00010F04C6E2DEF0FF049C046F04B50C00F65
:101E0000476E8CEC10F04C6E2DEF0FF049C046F091
:101E10004B50940F476E8CEC10F04C6E2DEF0FF082
:101E200049C046F04B50D40F476E8CEC10F04C6E0E
:101E30002DEF0FF04A50010AD8B4F2EF0EF0030A6A
:101E4000D8B4FCEF0EF0010AD8B406EF0FF0070A81
:101E5000D8B410EF0FF02DEF0FF04C50120000012E
:101E6000D76B4D50D8A437EF0FF039EF0FF03CEFA0
:101E70000FF0D76B64EF0FF04DC049F04EC04AF041
:101E80004FC04BF0E5EC0EF055EF0FF04DC046F0B3
:101E900050C0F6FF100EF76EF86A0800F5CF47F055
:101EA0005FEC10F00001D76F502A50C0F6FF100E03
:101EB000F76EF86A0800F5500009D8A462EF0FF039
:101EC00064EF0FF046EF0FF00001D75112004350BE
:101ED000D8A46DEF0FF06FEF0FF072EF0FF0456ABF
:101EE0009BEF0FF04350020F3E6E4450010B3F6ECC
:101EF00063EC09F0456E4350030F3E6ED8904430BA
:101F0000010B3F6E63EC09F0456E4350040F3E6ECB
:101F10004440E8423F0B010B3F6E63EC09F0456E15
:101F20004350050F3E6E4438E8461F0B010B3F6ED1
:101F300063EC09F0456E45501200590E436EE8EC13
:101F40000DF0346E580E436E3DEC0EF0346E550EAF
:101F5000436E20EC11F0346ED10E4D6E010E4E6EBC
:101F6000030E4F6E140E506E2FEC0FF0346E060EF3
:101F70000001D96F130ED86FAD0EE82EFED7D82F03
:101F8000FCD7D92FFAD700F000F0D10E466E010E23
:101F9000476E8CEC10F0346EC5EF0FF01200AC0EF3
:101FA000F66E220EF76E000EF86E00EEA8F010EE40
:101FB0002FF00900F5CFEEFFE550E150FAE1780E81
:101FC000F66E240EF76E000EF86E00EE51F010EE75
:101FD00009F00900F5CFEEFFE550E150FAE100EE1F
:101FE00060F0480EEE6AE806FDE100EE01F0380E02
:101FF000EE6AE806FDE15A905A920001AEEF0AF04F
:10200000486A496A4650D8A408EF10F00AEF10F069
:102010000DEF10F0476A2EEF10F0486A4650482442
:10202000436EB9EC10F0482A030E48641AEF10F022
:102030001CEF10F00EEF10F0496A46504924040FCF
:102040003E6E15EC08F0492A020E49642AEF10F0A2
:102050002CEF10F01DEF10F0010E476E47501200EC
:10206000D8EC11F0500E4DEC12F07F0E49EC12F04E
:10207000280E3E6E190E3F6E2DEC12F0000E3E6ED5
:10208000000E3F6E32EC12F0A20E3E6E240E3F6E3A
:102090001EEC12F0B20E3E6E240E3F6E28EC12F0D3
:1020A000BA0E3E6E240E3F6E37EC12F0000E3E6EFE
:1020B000000E3F6E23EC12F064EC12F0120046505A
:1020C000D8A465EF10F067EF10F06AEF10F0486ADF
:1020D0008AEF10F046C03EF0010E3F6E63EC09F04F
:1020E000486E46C043F047380F0B446E67EC0FF064
:1020F000486E46C043F002EC11F0486E46C043F013
:1021000047C044F067EC0FF0486E46C043F002EC65
:1021100011F0486E485012004650D8A492EF10F0CB
:1021200094EF10F097EF10F0486AB7EF10F046C048
:102130003EF0000E3F6E63EC09F0486E46C043F07F
:1021400047380F0B446E67EC0FF0486E46C043F003
:1021500002EC11F0486E46C043F047C044F067EC13
:102160000FF0486E46C043F002EC11F0486E485044
:102170001200010E456E4350D8B4C1EF10F0C3EF0A
:1021800010F0D3EF10F04350D96EDA6ADF30E83246
:10219000E832070B446E070E4464D1EF10F0D3EF22
:1021A00010F0D6EF10F0456AE0EF10F043C03EF0BB
:1021B00015EC08F043C03EF0000E3F6E63EC09F0F2
:1021C000455012004D50D8A4E8EF10F0EAEF10F09F
:1021D000EEEF10F00001D76B00EF11F04DC049F0A9
:1021E0004EC04AF04FC04BF0E5EC0EF00001D76F47
:1021F0004DC046F050C047F05FEC10F00001D76FC3
:10220000D75112004350D8A408EF11F00AEF11F093
:102210000DEF11F0446A1EEF11F043283E6E010EDF
:102220003F6E63EC09F0030EE82EFED70000432852
:102230003E6E000E3F6E63EC09F0446E4450120097
:102240004350D8A426EF11F028EF11F02BEF11F036
:10225000446A39EF11F043C03EF0000E3F6E63EC6C
:1022600009F043283E6E000E3F6E63EC09F0010E4C
:10227000446E445012004350D8A441EF11F043EF94
:1022800011F046EF11F0446A54EF11F043C03EF0F4
:10229000010E3F6E63EC09F043283E6E000E3F6E68
:1022A00063EC09F0010E446E4450120031323334B5
:1022B00035363738392A302331333935343437809D
:1022C00081828384898A8B8C8D9293949596020A5D
:0B22D000122A4B535B232B333B040C02
:1022DC004650D8A474EF11F076EF11F079EF11F0AD
:1022EC00476A83EF11F046C043F0B9EC10F0462872
:1022FC00436EB9EC10F0010E476E475012001950A6
:10230C001A10D8B48CEF11F08EEF11F09AEF11F087
:10231C0002D89AEF11F00500FA6E1950FD6E1A50A2
:10232C00FE6EFF6AFA50120012001B501C10D8B43B
:10233C00A2EF11F0A4EF11F0B0EF11F002D8B0EF52
:10234C0011F00500FA6E1B50FD6E1C50FE6EFF6AFC
:10235C00FA501200120017501810D8B4B8EF11F040
:10236C00BAEF11F0C6EF11F002D8C6EF11F005006C
:10237C00FA6E1750FD6E1850FE6EFF6AFA5012007E
:10238C0012008D6A8C6A896A8A6A8B6A070E966E4D
:10239C0092689368946895687E681F0E7F6E7C6A5D
:1023AC00F18E1200C6BADDEF11F0DFEF11F0E5EFA0
:1023BC0011F0800EC76E060EC612C56AC68A1200D0
:1023CC00C7A0EBEF11F0EEEF11F0010EEFEF11F0F3
:1023DC00000E1200C7B0F5EF11F0F8EF11F0010E7E
:1023EC00F9EF11F0000E1200C7B4FFEF11F002EF7D
:1023FC0012F0010E03EF12F0000E1200C7AA09EF43
:10240C0012F00CEF12F0010E0DEF12F0000E120094
:10241C0045EC12F017EC12F0C7EC11F041EC12F095
:10242C001200800EC76E060EC612C56AC69A12003E
:10243C003EC019F03FC01AF012003EC013F03FC06E
:10244C0014F012003EC01BF03FC01CF012003EC046
:10245C001DF03FC01EF012003EC015F03FC016F03C
:10246C0012003EC017F03FC018F01200010101012C
:05247C00323A03247157
:10248200300ED36E9B6A1200D08E9F86A2861200F7
:102492003E6E3EC077FF12003E6E3EC0C8FF120085
:1024A200315055EC12F01200396E39C0C9FF1200DA
:1024B2006AEC12F0306E12006AEC12F02F6E12000B
:1024C200C9CF35F012009D861200C68812009E9672
:0624D2001200C9501200C7
:020000040030CA
:0E000000FF021F1EFF8B85FF0FC00FE00F4099
:00000001FF
