:040000002BEF02F0F0
:100008003F82FACF18F0FBCF19F0E9CF1AF0EACF08
:100018001BF0D9CF1CF0DACF1DF0F6CF1EF0F7CFCA
:100028001FF0F8CF20F0F5CF21F0F2A81EEF00F076
:1000380020EF00F029EF00F0F2A225EF00F027EF03
:1000480000F029EF00F01BEC2BF0F0A62EEF00F0EB
:1000580030EF00F039EF00F0F0A035EF00F037EFA7
:1000680000F039EF00F019EC2BF0F0A83EEF00F0AB
:1000780040EF00F049EF00F0F0A245EF00F047EF45
:1000880000F049EF00F017EC2BF0F2A64EEF00F06D
:1000980050EF00F06AEF00F0F2A055EF00F057EFD4
:1000A80000F06AEF00F081A85CEF00F05EEF00F06E
:1000B8006AEF00F03604D8A464EF00F066EF00F0B1
:1000C8006AEF00F0366A000E46EC2AF0F2A66FEFEF
:1000D80000F071EF00F08CEF00F0F2A076EF00F086
:1000E80078EF00F08CEF00F081B87DEF00F07FEF43
:1000F80000F08CEF00F03650D8A485EF00F087EFC1
:1001080000F08CEF00F0010E366E010E46EC2AF07E
:10011800F2A691EF00F093EF00F0ADEF00F0F2A03F
:1001280098EF00F09AEF00F0ADEF00F081AA9FEF92
:1001380000F0A1EF00F0ADEF00F03504D8A4A7EF70
:1001480000F0A9EF00F0ADEF00F0356A000E39ECD1
:100158002AF0F2A6B2EF00F0B4EF00F0CFEF00F013
:10016800F2A0B9EF00F0BBEF00F0CFEF00F081BADA
:10017800C0EF00F0C2EF00F0CFEF00F03550D8A488
:10018800C8EF00F0CAEF00F0CFEF00F0010E356EB7
:10019800010E39EC2AF0F2A6D4EF00F0D6EF00F009
:1001A800F0EF00F0F2A0DBEF00F0DDEF00F0F0EF91
:1001B80000F081ACE2EF00F0E4EF00F0F0EF00F0C7
:1001C8003404D8A4EAEF00F0ECEF00F0F0EF00F010
:1001D800346A000E2CEC2AF0F2A6F5EF00F0F7EFE7
:1001E80000F012EF01F0F2A0FCEF00F0FEEF00F0DB
:1001F80012EF01F081BC03EF01F005EF01F012EFFF
:1002080001F03450D8A40BEF01F00DEF01F012EF1C
:1002180001F0010E346E010E2CEC2AF0F2A617EF55
:1002280001F019EF01F033EF01F0F2A01EEF01F039
:1002380020EF01F033EF01F081AE25EF01F027EF59
:1002480001F033EF01F03304D8A42DEF01F02FEFC4
:1002580001F033EF01F0336A000E1FEC2AF0F2A62A
:1002680038EF01F03AEF01F055EF01F0F2A03FEF5F
:1002780001F041EF01F055EF01F081BE46EF01F0CA
:1002880048EF01F055EF01F03350D8A44EEF01F0DC
:1002980050EF01F055EF01F0010E336E010E1FEC27
:1002A8002AF09DAC5AEF01F05CEF01F065EF01F028
:1002B8009EAC61EF01F063EF01F065EF01F021EC16
:1002C8002BF0F2AA6AEF01F06CEF01F075EF01F084
:1002D800F2A471EF01F073EF01F075EF01F0CEECCD
:1002E80028F09DA07AEF01F07CEF01F085EF01F096
:1002F8009EA081EF01F083EF01F085EF01F0ABECF8
:100308002AF09DA28AEF01F08CEF01F095EF01F041
:100318009EA291EF01F093EF01F095EF01F0F1EC5F
:100328002AF0A0A29AEF01F09CEF01F0A5EF01F0EE
:10033800A1A2A1EF01F0A3EF01F0A5EF01F0A4EC59
:100348002AF09DA8AAEF01F0ACEF01F0B5EF01F09B
:100358009EA8B1EF01F0B3EF01F0B5EF01F01DEC8D
:100368002BF09DAABAEF01F0BCEF01F0C5EF01F048
:100378009EAAC1EF01F0C3EF01F0C5EF01F023EC35
:100388002BF09DA6CAEF01F0CCEF01F0D5EF01F0FC
:100398009EA6D1EF01F0D3EF01F0D5EF01F013ECF9
:1003A8002BF0A0A6DAEF01F0DCEF01F0E5EF01F0A9
:1003B800A1A6E1EF01F0E3EF01F0E5EF01F015ECA4
:1003C8002BF09DA6EAEF01F0ECEF01F0F5EF01F05C
:1003D8009EA6F1EF01F0F3EF01F0F5EF01F011EC5B
:1003E8002BF09DA4FAEF01F0FCEF01F005EF02F00D
:1003F8009EA401EF02F003EF02F005EF02F003EC18
:1004080029F0A0A00AEF02F00CEF02F015EF02F0BD
:10041800A1A011EF02F013EF02F015EF02F01FECAC
:100428002BF021C0F5FF20C0F8FF1FC0F7FF1EC04A
:10043800F6FF1DC0DAFF1CC0D9FF1BC0EAFF1AC0B7
:10044800E9FF19C0FBFF18C0FAFF3F921100A7EFA0
:0204580024F08E
:101000000086551C553A55BC3BBE4070557A47DAB0
:1010100055D255CA55C255BA55B255AA557C553404
:101020004C53746F7020576174636800313A2043E9
:101030006C6F636B00323A20416C61726D00313A23
:10104000204261636B00446174653A2000256900A9
:01105000009F
:1010520096EC2AF03D0E0001DB6FDC6BE8EC25F02C
:101062000101966F370E0001E26FA4EC19F0010145
:10107200966F380E0001DF6F010EE06F40EC23F037
:101082000101966F300E0001D96F010EDA6F58EC34
:101092001FF00101966FA0EC1EF0306AB8EF08F065
:1010A200380E0001DB6F010EDC6F300EDD6F32ECAB
:1010B2001BF00101966F920E53EC2AF03E6E000E69
:1010C2000001E46F3EC0E5F0700E6FEC24F0020EFA
:1010D2000101956F040E946FBA0EE82EFED7942F7D
:1010E200FCD7952FFAD70000300E0001DC6F010EFD
:1010F200DD6F000EDE6F310EDF6FABEC26F001010B
:10110200966F000E0001E46F31C0E5F0500E6FECF7
:1011120024F0020E0101956F040E946FBA0EE82EB0
:10112200FED7942FFCD7952FFAD700002650D8A4CB
:101132009DEF08F09FEF08F0B8EF08F02550D8A413
:10114200A5EF08F0A7EF08F0B8EF08F02450D8A4F4
:10115200ADEF08F0AFEF08F0B8EF08F0400E000175
:10116200D56F010ED66F82EC29F00101966F3050D7
:10117200D8B4BEEF08F0C0EF08F051EF08F03050DD
:10118200D8B4C6EF08F0C8EF08F04EEF08F0FEEF53
:101192000CF0370E0001DF6F010EE06F80EC25F0DE
:1011A2001A0E0101946FF80EE82EFED7942FFCD789
:1011B2000000920E53EC2AF03E6E000E0001E46F26
:1011C2003EC0E5F0700E6FEC24F0020E0101956F47
:1011D200040E946FBA0EE82EFED7942FFCD7952FEB
:1011E200FAD70000300E0001DC6F010EDD6F000E39
:1011F200DE6F310EDF6FABEC26F00101966F000E51
:101202000001E46F31C0E5F0500E6FEC24F0020EE5
:101212000101956F040E946FBA0EE82EFED7942F3B
:10122200FCD7952FFAD700002C6A370E0001DF6F2A
:101232000C0EE06F80EC25F00101966F95EF09F03E
:10124200920E53EC2AF03E6E000E0001E46F3EC097
:10125200E5F0700E6FEC24F0820E0101946FDD0E4A
:10126200E82EFED7942FFCD700F000F0300E0001DC
:10127200DC6F010EDD6F000EDE6F310EDF6FABEC47
:1012820026F00101966F000E0001E46F31C0E5F017
:10129200500E6FEC24F0820E0101946FDD0EE82EE9
:1012A200FED7942FFCD700F000F0380E0001DB6F60
:1012B200010EDC6F2C0EDD6F32EC1BF00101966F1C
:1012C2004BEC25F021EE47F0050EEBCFDBFFE806F5
:1012D200FCE2820E0101946FDD0EE82EFED7942F00
:1012E200FCD700F000F0370E01018C6F020E8D6FFB
:1012F200010E8E6F27EC1CF08AC18FF18BC190F129
:10130200FFEC20F00101966F370E8C6F040E8D6F8B
:10131200010E8E6F3E0E8F6F8F51D8A4100E906FFC
:10132200FFEC20F00101966F310E2C18D8A49CEF2F
:1013320009F09EEF09F021EF09F02C50D8B4A4EF88
:1013420009F0A6EF09F009EF0DF0370E0001DF6F8B
:10135200010EE06F80EC25F01A0E0101946FF80E79
:10136200E82EFED7942FFCD700004CEF08F0370E82
:101372000001DF6F010EE06F80EC25F01A0E010113
:10138200946FF80EE82EFED7942FFCD70000010EC2
:101392002D6EB4EC1AF0370E01018C6F040E8D6FB6
:1013A200010E8E6F3E0E8F6F8F51D8A4100E906F6C
:1013B200FFEC20F00101966FF3EF0CF0920E53EC6C
:1013C2002AF03E6E000E0001E46F3EC0E5F0700EA2
:1013D2006FEC24F0020E0101956F040E946FBA0EA9
:1013E200E82EFED7942FFCD7952FFAD70000300EA7
:1013F2000001DC6F010EDD6F000EDE6F310EDF6F5C
:10140200ABEC26F00101966F000E0001E46F31C0D3
:10141200E5F0500E6FEC24F0020E0101956F040E00
:10142200946FBA0EE82EFED7942FFCD7952FFAD7D9
:101432000000DCEF0AF0920E53EC2AF03E6E000E32
:101442000001E46F3EC0E5F0700E6FEC24F0020E76
:101452000101956F040E946FBA0EE82EFED7942FF9
:10146200FCD7952FFAD70000300E0001DC6F010E79
:10147200DD6F000EDE6F310EDF6FABEC26F0010187
:10148200966F000E0001E46F31C0E5F0500E6FEC74
:1014920024F0020E0101956F040E946FBA0EE82E2D
:1014A200FED7942FFCD7952FFAD700002650D8A448
:1014B2005DEF0AF05FEF0AF08BEF0AF02550D8A437
:1014C20065EF0AF067EF0AF08BEF0AF02450D8A418
:1014D2006DEF0AF06FEF0AF08BEF0AF0400E000199
:1014E200D56F010ED66F82EC29F00101966F0C0EBA
:1014F2002D18D8A47FEF0AF081EF0AF08BEF0AF0E3
:101502003D0E0001D56FD66B010ED76F39EC15F089
:101512000101966F380E0001DB6F010EDC6F2F0E9A
:10152200DD6F32EC1BF00101966F380E0001DB6FAC
:10153200010EDC6F2D0EDD6F32EC1BF00101966F98
:10154200020E0101956F040E946FBA0EE82EFED7BB
:10155200942FFCD7952FFAD70000310E2D18D8A45E
:10156200B5EF0AF0B7EF0AF0DCEF0AF03D0E00012A
:10157200D56FD66B000ED76F39EC15F00101966F5F
:10158200370E0001DF6F010EE06F80EC25F01A0EBE
:101592000101946FF80EE82EFED7942FFCD70000BD
:1015A200370E0001DF6F0C0EE06F80EC25F00101B9
:1015B200966FA0EC1EF02F50D8B4E2EF0AF0E4EFE1
:1015C2000AF01CEF0AF0EBEF0CF0920E53EC2AF04B
:1015D2003E6E000E0001E46F3EC0E5F0700E6FEC4F
:1015E20024F0020E0101956F040E946FBA0EE82EDC
:1015F200FED7942FFCD7952FFAD70000300E0001AA
:10160200DC6F010EDD6F000EDE6F310EDF6FABECB3
:1016120026F00101966F000E0001E46F31C0E5F083
:10162200500E6FEC24F0020E0101956F040E946FC0
:10163200BA0EE82EFED7942FFCD7952FFAD70000CA
:10164200230E2F18D8A428EF0BF02AEF0BF061EF2E
:101652000BF03250D8B430EF0BF032EF0BF05EEFFC
:101662000BF03206030E3218D8B43AEF0BF03CEF0F
:101672000BF045EF0BF0060E3218D8A443EF0BF037
:1016820045EF0BF046EF0BF03206370E0001E26F2A
:10169200010EE36F32C0E4F0B0EC20F00101966F6E
:1016A200030E0101956F080E946F770EE82EFED798
:1016B200942FFCD7952FFAD72F6A2F6AEBEF0CF0F5
:1016C2003D0E2F18D8A468EF0BF06AEF0BF088EFED
:1016D2000BF0080E326070EF0BF072EF0BF05EEF62
:1016E2000BF0322A030E3218D8B47AEF0BF07CEFEB
:1016F2000BF085EF0BF0060E3218D8A483EF0BF037
:1017020085EF0BF046EF0BF0322A46EF0BF02B0E73
:101712002F18D8A48FEF0BF091EF0BF09AEF0CF08B
:10172200030E0101956F080E946F770EE82EFED717
:10173200942FFCD7952FFAD7E5EF0BF0920E53ECCE
:101742002AF03E6E000E0001E46F3EC0E5F0700E1E
:101752006FEC24F0020E0101956F040E946FBA0E25
:10176200E82EFED7942FFCD7952FFAD70000300E23
:101772000001DC6F010EDD6F000EDE6F310EDF6FD8
:10178200ABEC26F00101966F000E0001E46F31C050
:10179200E5F0500E6FEC24F0020E0101956F040E7D
:1017A200946FBA0EE82EFED7942FFCD7952FFAD756
:1017B2000000380E0001DB6F010EDC6F2E0EDD6FB4
:1017C20032EC1BF00101966F2E50D8B4EBEF0BF008
:1017D200EDEF0BF09FEF0BF02F0E2E64F3EF0BF0FB
:1017E200F5EF0BF07AEF0CF03A0E2E60FBEF0BF0F8
:1017F200FDEF0BF07AEF0CF03204D8A403EF0CF0FB
:1018020005EF0CF01BEF0CF02E50D00F00017D6F96
:101812002F6A2E6AB4EC1AF0030E0101956F080EBE
:10182200946F770EE82EFED7942FFCD7952FFAD718
:101832007AEF0CF0020E3218D8A422EF0CF024EF4B
:101842000CF02AEF0CF02E50D00F00017E6F09EF42
:101852000CF0040E3218D8A431EF0CF033EF0CF078
:1018620043EF0CF0350E2E6439EF0CF03BEF0CF029
:101872003DEF0CF0350E2E6E2E50D00F00017F6F13
:1018820009EF0CF0050E3218D8A44AEF0CF04CEF19
:101892000CF052EF0CF02E50D00F0001806F09EFC8
:1018A2000CF0070E3218D8A459EF0CF05BEF0CF0D5
:1018B2006BEF0CF0350E2E6461EF0CF063EF0CF061
:1018C20065EF0CF0350E2E6E2E50D00F0001816F99
:1018D20009EF0CF0080E3218D8A472EF0CF074EF76
:1018E2000CF07AEF0CF02E50D00F0001826F09EF4E
:1018F2000CF02F6A2E6A000181510A0DF3508225E5
:10190200266E7F510A0DF3508025256E7D510A0DFA
:10191200F3507E25246E030E0101956F080E946F1D
:10192200770EE82EFED7942FFCD7952FFAD7EBEF40
:101932000CF02D0E2F18D8A4A1EF0CF0A3EF0CF091
:101942005EEF0BF0920E53EC2AF03E6E000E000199
:10195200E46F3EC0E5F0700E6FEC24F0020E010160
:10196200956F040E946FBA0EE82EFED7942FFCD713
:10197200952FFAD70000300E0001DC6F010EDD6FEB
:10198200000EDE6F310EDF6FABEC26F00101966FB9
:10199200000E0001E46F31C0E5F0500E6FEC24F050
:1019A200020E0101956F040E946FBA0EE82EFED757
:1019B200942FFCD7952FFAD70000400E0001D96F63
:1019C200010EDA6F2CEC22F00101966F0C0E2D6ED7
:1019D2005EEF0BF02F50D8A4F1EF0CF0F3EF0CF008
:1019E200E6EF0AF0310E2D18D8A4FAEF0CF0FCEF56
:1019F2000CF0DFEF09F04EEF08F03050310AD8B4A6
:101A0200CAEF08F0030AD8B4B8EF09F009EF0DF0F5
:101A12004EEF08F02BEF02F0000E0101806F000E76
:101A2200816F000E826F000E836F44EF0FF0AC984F
:101A3200B896AC847CC1D9FF7DC1DAFFDECFD5F088
:101A4200DECFD6F0DECFD7F0DECFD8F0000EF6EC48
:101A520017F0D5C0E7F0D6C0E8F0D7C0E9F0D8C09B
:101A6200EAF0000E0001E36F240EE46FF40EE56F5E
:101A72004A0EE66F08EC12F0E3C084F1E4C085F18F
:101A8200E5C086F1E6C087F1000E0001E76F000EA7
:101A9200E86F800EE96F410EEA6F84C1E3F085C101
:101AA200E4F086C1E5F087C1E6F008EC12F0E3C08D
:101AB20070F1E4C071F1E5C072F1E6C073F1000E9D
:101AC2000101746F000E756F800E766FBF0E776F17
:101AD20091EC0FF070C180F171C181F172C182F19C
:101AE20073C183F16FEF0FF0AC98B896AC947CC1E0
:101AF200D9FF7DC1DAFFDECFD5F0DECFD6F0DECF63
:101B0200D7F0DECFD8F0000EF6EC17F0D5C0E7F034
:101B1200D6C0E8F0D7C0E9F0D8C0EAF0000E000164
:101B2200E36F240EE46FF40EE56F4A0EE66F08ECE5
:101B320012F0E3C084F1E4C085F1E5C086F1E6C0AD
:101B420087F1000E0001E76F000EE86F800EE96F6B
:101B5200420EEA6F84C1E3F085C1E4F086C1E5F08C
:101B620087C1E6F008EC12F0E3C070F1E4C071F155
:101B7200E5C072F1E6C073F1000E0101746F000E50
:101B8200756F800E766FBF0E776F91EC0FF070C19C
:101B920080F171C181F172C182F173C183F16FEF82
:101BA2000FF0AC98B886AC947CC1D9FF7DC1DAFF46
:101BB200DECFD5F0DECFD6F0DECFD7F0DECFD8F055
:101BC200000EF6EC17F0D5C0E7F0D6C0E8F0D7C0AB
:101BD200E9F0D8C0EAF0000E0001E36F240EE46FD2
:101BE200F40EE56F4A0EE66F08EC12F0E3C084F1E2
:101BF200E4C085F1E5C086F1E6C087F1000E000180
:101C0200E76F000EE86F800EE96F400EEA6F84C145
:101C1200E3F085C1E4F086C1E5F087C1E6F008ECA7
:101C220012F0E3C070F1E4C071F1E5C072F1E6C0F8
:101C320073F1000E0101746F000E756F800E766FE6
:101C4200BF0E776F91EC0FF070C180F171C181F11D
:101C520072C182F173C183F16FEF0FF0AC98B88655
:101C6200AC947CC1D9FF7DC1DAFFDECFD5F0DECFE7
:101C7200D6F0DECFD7F0DECFD8F0000EF6EC17F0BC
:101C8200D5C0E7F0D6C0E8F0D7C0E9F0D8C0EAF096
:101C9200000E0001E36F240EE46FF40EE56F4A0EAE
:101CA200E66F08EC12F0E3C084F1E4C085F1E5C010
:101CB20086F1E6C087F1000E0001E76F000EE86FC3
:101CC200800EE96F410EEA6F84C1E3F085C1E4F052
:101CD20086C1E5F087C1E6F008EC12F0E3C070F1CE
:101CE200E4C071F1E5C072F1E6C073F1000E0101CA
:101CF200746F000E756F800E766FBF0E776F91EC6A
:101D02000FF070C180F171C181F172C182F173C1B2
:101D120083F16FEF0FF0AC88B8967CC1D9FF7DC11B
:101D2200DAFFDECFD5F0DECFD6F0DECFD7F0DECFD2
:101D3200D8F0000EF6EC17F0D5C0E7F0D6C0E8F008
:101D4200D7C0E9F0D8C0EAF0000E0001E36F240E1C
:101D5200E46FF40EE56F4A0EE66F08EC12F0E3C092
:101D620084F1E4C085F1E5C086F1E6C087F1000E9A
:101D72000001E76F000EE86F800EE96F400EEA6F18
:101D820084C1E3F085C1E4F086C1E5F087C1E6F0E5
:101D920008EC12F0E3C070F1E4C071F1E5C072F139
:101DA200E6C073F1000E0101746F000E756F800EB4
:101DB200766FBF0E776F91EC0FF070C180F171C139
:101DC20081F172C182F173C183F16FEF0FF0AC88C0
:101DD200B8867CC1D9FF7DC1DAFFDECFD5F0DECF78
:101DE200D6F0DECFD7F0DECFD8F0000EF6EC17F04B
:101DF200D5C0E7F0D6C0E8F0D7C0E9F0D8C0EAF025
:101E0200000E0001E36F240EE46FF40EE56F4A0E3C
:101E1200E66F08EC12F0E3C084F1E4C085F1E5C09E
:101E220086F1E6C087F1000E0001E76F000EE86F51
:101E3200800EE96F400EEA6F84C1E3F085C1E4F0E1
:101E420086C1E5F087C1E6F008EC12F0E3C070F15C
:101E5200E4C071F1E5C072F1E6C073F1000E010158
:101E6200746F000E756F800E766FBF0E776F91ECF8
:101E72000FF070C180F171C181F172C182F173C141
:101E820083F16FEF0FF020EE04F07C51D9267D51E3
:101E9200DA22DF507E6F7F6B7F51000AD8B454EF95
:101EA2000FF06FEF0FF07E51000AD8B418EF0DF06B
:101EB200010AD8B475EF0DF0030AD8B4D2EF0DF0D1
:101EC200010AD8B42FEF0EF0070AD8B48CEF0EF047
:101ED200010AD8B4E8EF0EF06FEF0FF080C1D5F031
:101EE20081C1D6F082C1D7F083C1D8F030EC1AF0AC
:101EF2000001D6C0D5F0D7C0D6F0D8C0D7F0D86B85
:101F0200D551B06E80C1D5F081C1D6F082C1D7F073
:101F120083C1D8F030EC1AF00001D551AF6E120037
:101F220001017351800B786F735173257A6F72AF11
:101F32009DEF0FF09FEF0FF0A0EF0FF07A817A5133
:101F4200D8B4A6EF0FF0A8EF0FF0BCEF0FF07A298C
:101F5200D8A4AEEF0FF0B0EF0FF0B8EF0FF0000E15
:101F6200706F000E716F000E726F000E736F728FC2
:101F7200736BC4EF0FF0000E706F000E716F000EE6
:101F8200726F000E736F7751800B796F78517919E8
:101F9200D8B4CEEF0FF0D0EF0FF0D1EF0FF0788D75
:101FA20077517725796F76AFD9EF0FF0DBEF0FF02E
:101FB200DCEF0FF079817951D8B4E2EF0FF0E4EF62
:101FC2000FF0F8EF0FF07929D8A4EAEF0FF0ECEF59
:101FD2000FF0F4EF0FF0000E746F000E756F000E2D
:101FE200766F000E776F768F776B00EF10F0000E32
:101FF200746F000E756F000E766F000E776F7A5158
:10200200795DD8B007EF10F009EF10F030EF10F063
:1020120078AD0EEF10F010EF10F012EF10F0800E0E
:10202200781B7AC17BF179C17AF17BC179F170C1F8
:102032007BF174C170F17BC174F171C17BF175C127
:1020420071F17BC175F172C17BF176C172F17BC115
:1020520076F173C17BF177C173F17BC177F17B6B51
:102062007A5179C1FCF00001FD6BFC5F000EFD5B53
:10207200FDBF45EF10F0FD5109E11A0EFC5DD8A03D
:1020820045EF10F047EF10F07FEF10F001017051B3
:10209200711172117311D8A451EF10F054EF10F0B6
:1020A200010E55EF10F0000E7B6F000E706F000EE8
:1020B200716F000E726F000E736F79C17AF189EF42
:1020C20010F07BA167EF10F069EF10F06FEF10F0E6
:1020D200D8907B3101097B6F71EF10F0D8907B3380
:1020E20070A176EF10F078EF10F079EF10F07B8F9F
:1020F200733573337233713370337A2B0101795133
:102102007A5DD8A087EF10F089EF10F062EF10F03F
:1021120078BD8EEF10F090EF10F0D0EF10F07A5102
:10212200D8A496EF10F098EF10F0A2EF10F0000E86
:10213200706F000E716F000E726F000E736F07EFFB
:1021420012F07451702775517123765172237751B1
:10215200732373A1AFEF10F0B1EF10F070EF11F035
:102162007BA1B6EF10F0B8EF10F0BEEF10F0D890F0
:102172007B3101097B6FC0EF10F0D8907B3370A1E7
:10218200C5EF10F0C7EF10F0C8EF10F07B8F73357A
:1021920073337233713370337A2B70EF11F07451E1
:1021A200705D75517159765172597351800A0001EF
:1021B200FC6F01017751800A0001FC59D8B0E4EFAD
:1021C20010F0E6EF10F020EF11F001017051745D94
:1021D2000001FC6F0101715175590001FD6F010190
:1021E200725176590001FE6F010173517759000156
:1021F200FF6FFF0EFC250101706FFF0E0001FD2134
:102202000101716FFF0E0001FE210101726FFF0ECD
:102212000001FF210101736F800E781B7B6D7B51E2
:10222200D8A416EF11F018EF11F029EF11F0010EFA
:102232007027000E71237223732329EF11F001011D
:102242007451705F7551715B7651725B7751735B3C
:102252007051711172117311D8A432EF11F034EF71
:1022620011F069EF11F07B51D8A43AEF11F03CEF75
:1022720011F069EF11F0000E706F000E716F000E19
:10228200726F000E736F07EF12F0D89070377137CC
:10229200723773377BAF50EF11F052EF11F053EFFB
:1022A20011F070817BA158EF11F05AEF11F05EEF3F
:1022B20011F0D8807B3760EF11F0D8907B377A51DC
:1022C200D8B466EF11F068EF11F069EF11F07A07F8
:1022D20072AF6EEF11F070EF11F046EF11F0796B03
:1022E2007BAF76EF11F078EF11F093EF11F07BC135
:1022F200FCF07F0E0001FC17D8B482EF11F084EFDE
:1023020011F089EF11F0010E0101796F93EF11F0D5
:10231200010170A18FEF11F091EF11F093EF11F025
:1023220084EF11F07951D8B499EF11F09BEF11F0CD
:10233200C8EF11F0010E7027000E71237223732370
:1023420073A1A6EF11F0A8EF11F0C8EF11F070C160
:10235200FCF071C1FDF072C1FEF073C1FFF000012B
:10236200FF35FF33FE33FD33FC33FCC070F1FDC09B
:1023720071F1FEC072F1FFC073F101017A29D8B484
:10238200C5EF11F0C7EF11F0C8EF11F07A2B7A29DF
:10239200D8B4CEEF11F0D0EF11F0D8EF11F07A519E
:1023A200D8A4D6EF11F0D8EF11F0E9EF11F0000E3A
:1023B200706F000E716F000E726F000E736F7A51A4
:1023C200D8A4E6EF11F0E8EF11F0E9EF11F0786B25
:1023D2007AA1EEEF11F0F0EF11F0F3EF11F0728F3E
:1023E200F4EF11F0729FD8907A31736F78AFFCEFEF
:1023F20011F0FEEF11F0FFEF11F0738F70C170F169
:1024020071C171F172C172F173C173F112000001F5
:10241200E651800BF36FE651E625FA6FE5AF14EF54
:1024220012F016EF12F017EF12F0FA81FA51D8B447
:102432001DEF12F01FEF12F033EF12F0FA29D8A4B9
:1024420025EF12F027EF12F02FEF12F0000EE36FDC
:10245200000EE46F000EE56F000EE66FE58FE66B8F
:102462003BEF12F0000EE36F000EE46F000EE56F1B
:10247200000EE66FEA51800BF31BEA51EA25FB6F6F
:10248200E9AF46EF12F048EF12F049EF12F0FB818C
:10249200FB51D8B44FEF12F051EF12F065EF12F08A
:1024A200FB29D8A457EF12F059EF12F061EF12F0A6
:1024B200000EE76F000EE86F000EE96F000EEA6F84
:1024C200E98FEA6B6DEF12F0000EE76F000EE86F16
:1024D200000EE96F000EEA6FE751E811E911EA1107
:1024E200D8A476EF12F078EF12F090EF12F0000E0F
:1024F200E36F000EE46F000EE56F000EE66F800ED4
:10250200E5137F0EE613F351E613E3C0E3F0E4C0F4
:10251200E4F0E5C0E5F0E6C0E6F0D0EF13F0FA51E2
:10252200D8A496EF12F098EF12F0A2EF12F0000E7C
:10253200E36F000EE46F000EE56F000EE66FD0EF62
:1025420013F0FB51FAC0EBF0EC6BEB5F000EEC5BAF
:102552007F0EEB25F46F000EEC21F56FE3C0EFF078
:10256200E4C0F0F0E5C0F1F0E6C0F2F0000EE36F77
:10257200000EE46F000EE56F000EE66F000EF66FC0
:10258200000EF76F000EF86F000EF96FFB6B02EF93
:1025920013F0FB51D8B4D0EF12F0D2EF12F0E9EF02
:1025A20012F0D890EF37F037F137F237D890E3379F
:1025B200E437E537E637F9AFE1EF12F0E3EF12F077
:1025C200E4EF12F0E381D890F637F737F837F937AE
:1025D200E751EF5DE851F059E951F159EA51F259E9
:1025E200D8A0F6EF12F0F8EF12F001EF13F0F98D28
:1025F200E751EF5FE851F05BE951F15BEA51F25BC1
:10260200FB2B190EFB6508EF13F00AEF13F0CAEF6C
:1026120012F0EF51F011F111F211D8B413EF13F0DF
:1026220015EF13F02DEF13F0F6812DEF13F0D89084
:10263200E337E437E537E637F9AF22EF13F024EF5B
:1026420013F025EF13F0E381D890F637F737F83718
:10265200F937F407D8A0F507E5AF32EF13F034EFFE
:1026620013F018EF13F0FB6BF9AF3AEF13F03CEFF6
:1026720013F060EF13F0FF0EF615EB6FFF0EF71578
:10268200EC6FFF0EF815ED6F7F0EF915EE6FEB5143
:10269200EC11ED11EE11D8B451EF13F053EF13F02A
:1026A20057EF13F0010EFB6F60EF13F0E3A15CEF45
:1026B20013F05EEF13F060EF13F053EF13F0FB51E2
:1026C200D8B466EF13F068EF13F08CEF13F0010E3D
:1026D200E327000EE423E523E623E6A173EF13F0DC
:1026E20075EF13F08CEF13F0E3C0EBF0E4C0ECF005
:1026F200E5C0EDF0E6C0EEF0EE35EE33ED33EC334F
:10270200EB33EBC0E3F0ECC0E4F0EDC0E5F0EEC07B
:10271200E6F0F44BF52BF5BF97EF13F0F55108E116
:10272200F429D8A097EF13F099EF13F0A4EF13F068
:10273200000EF56FF469000EE36F000EE46F000EF9
:10274200E56F000EE66FF5BFB1EF13F0F55106E14C
:10275200F405D8B0AFEF13F0B1EF13F0BEEF13F002
:10276200000EF56F000EF46F000EE36F000EE46FC3
:10277200000EE56F000EE66FF36BF4C0FAF0FAA1FB
:10278200C5EF13F0C7EF13F0CAEF13F0E58FCBEFED
:1027920013F0E59FD890FA31E66F84EF12F0120041
:1027A200010E0001D96FD551D611D8B4DBEF13F069
:1027B200DDEF13F0EEEF13F0D5C0D9FFD6C0DAFF8C
:1027C200DF30E832E832070BD76F070ED765ECEF40
:1027D20013F0EEEF13F020EF15F0D96B37EF15F091
:1027E200D5C0D9FFD6C0DAFFDF30E832E832070BB6
:1027F200D76F010ED86FD72B01EF14F0D890D837CE
:10280200D72FFFEF13F00001D851FF0A921637EFCE
:1028120015F0D5C0D9FFD6C0DAFFDF30E832E83292
:10282200070BD76F010ED86FD72B1AEF14F0D89081
:10283200D837D72F18EF14F00001D851FF0A93169A
:1028420037EF15F0D5C0D9FFD6C0DAFFDF30E83256
:10285200E832070BD76F010ED86FD72B33EF14F086
:10286200D890D837D72F31EF14F00001D851FF0A92
:10287200941637EF15F0D5C0D9FFD6C0DAFFDF3096
:10288200E832E832070BD76F010ED86FD72B4CEF27
:1028920014F0D890D837D72F4AEF14F00001D8514E
:1028A200FF0A951637EF15F0D5C0D9FFD6C0DAFF6B
:1028B200DF30E832E832070BD76F010ED86FD72B23
:1028C20065EF14F0D890D837D72F63EF14F00001DA
:1028D200D851FF0A961637EF15F0D5C0D9FFD6C0EA
:1028E200DAFFDF50070B000AD8B4F1EF13F0010A48
:1028F200D8B40AEF14F0030AD8B423EF14F0010A93
:10290200D8B43CEF14F0070AD8B455EF14F0EEEF48
:1029120013F0D5C0D9FFD6C0DAFFDF30E832E83293
:10292200070BD76F010ED86FD72B9AEF14F0D89000
:10293200D837D72F98EF14F00001D8519212EEEF4A
:1029420013F0D5C0D9FFD6C0DAFFDF30E832E83263
:10295200070BD76F010ED86FD72BB2EF14F0D890B8
:10296200D837D72FB0EF14F00001D8519312EEEF01
:1029720013F0D5C0D9FFD6C0DAFFDF30E832E83233
:10298200070BD76F010ED86FD72BCAEF14F0D89070
:10299200D837D72FC8EF14F00001D8519412EEEFB8
:1029A20013F0D5C0D9FFD6C0DAFFDF30E832E83203
:1029B200070BD76F010ED86FD72BE2EF14F0D89028
:1029C200D837D72FE0EF14F00001D8519512EEEF6F
:1029D20013F0D5C0D9FFD6C0DAFFDF30E832E832D3
:1029E200070BD76F010ED86FD72BFAEF14F0D890E0
:1029F200D837D72FF8EF14F00001D8519612EEEF26
:102A020013F0EEEF13F0D5C0D9FFD6C0DAFFDF50D6
:102A1200070B000AD8B48AEF14F0010AD8B4A2EF67
:102A220014F0030AD8B4BAEF14F0010AD8B4D2EF02
:102A320014F0070AD8B4EAEF14F002EF15F0D5C08B
:102A4200D9FFD6C0DAFFDFBC29EF15F02CEF15F065
:102A5200010E2DEF15F0000E000AD8B46EEF14F03F
:102A6200010AD8B404EF15F0EEEF13F0D9511200B9
:102A7200010E0001DA6FD551D611D8B443EF15F02B
:102A820045EF15F056EF15F0D5C0D9FFD6C0DAFFE5
:102A9200DF30E832E832070BD86F070ED86554EF03
:102AA20015F056EF15F086EF16F0DA6B9BEF16F085
:102AB200D5C0D9FFD6C0DAFFDF30E832E832070BE3
:102AC200D86F010ED96FD82B69EF15F0D890D9378E
:102AD200D82F67EF15F00001D951FF0A89169BEF35
:102AE20016F0D5C0D9FFD6C0DAFFDF30E832E832BF
:102AF200070BD86F010ED96FD82B82EF15F0D89043
:102B0200D937D82F80EF15F00001D951FF0A8A1664
:102B12009BEF16F0D5C0D9FFD6C0DAFFDF30E8321E
:102B2200E832070BD86F010ED96FD82B9BEF15F047
:102B3200D890D937D82F99EF15F00001D951FF0A53
:102B42008B169BEF16F0D5C0D9FFD6C0DAFFDF3067
:102B5200E832E832070BD86F010ED96FD82BB4EFE9
:102B620015F0D890D937D82FB2EF15F00001D9510E
:102B7200FF0A8C169BEF16F0D5C0D9FFD6C0DAFF3C
:102B8200DF30E832E832070BD86F010ED96FD82B4D
:102B9200CDEF15F0D890D937D82FCBEF15F0000133
:102BA200D951FF0A8D169BEF16F0D5C0D9FFD6C0BA
:102BB200DAFFDF50070B000AD8B459EF15F0010A0B
:102BC200D8B472EF15F0030AD8B48BEF15F0010AEE
:102BD200D8B4A4EF15F0070AD8B4BDEF15F056EF3C
:102BE20015F0D5C0D9FFD6C0DAFFDF30E832E832BF
:102BF200070BD86F010ED96FD82B02EF16F0D890C1
:102C0200D937D82F00EF16F00001D95189129BEF66
:102C120016F0D5C0D9FFD6C0DAFFDF30E832E8328D
:102C2200070BD86F010ED96FD82B1AEF16F0D89078
:102C3200D937D82F18EF16F00001D9518A129BEF1D
:102C420016F0D5C0D9FFD6C0DAFFDF30E832E8325D
:102C5200070BD86F010ED96FD82B32EF16F0D89030
:102C6200D937D82F30EF16F00001D9518B129BEFD4
:102C720016F0D5C0D9FFD6C0DAFFDF30E832E8322D
:102C8200070BD86F010ED96FD82B4AEF16F0D890E8
:102C9200D937D82F48EF16F00001D9518C129BEF8B
:102CA20016F0D5C0D9FFD6C0DAFFDF30E832E832FD
:102CB200070BD86F010ED96FD82B62EF16F0D890A0
:102CC200D937D82F60EF16F00001D9518D129BEF42
:102CD20016F0D5C0D9FFD6C0DAFFDF50070B000AC5
:102CE200D8B4F2EF15F0010AD8B40AEF16F0030ACD
:102CF200D8B422EF16F0010AD8B43AEF16F0070A58
:102D0200D8B452EF16F056EF15F0D751D86FD96BF1
:102D1200D951000AD8B490EF16F056EF15F0D851F9
:102D2200000AD8B4D6EF15F0010AD8B46AEF16F04B
:102D320056EF15F0DA511200010E066E0150021024
:102D4200D8B4A6EF16F0A8EF16F0B9EF16F001C04E
:102D5200D9FF02C0DAFFDF30E832E832070B046E37
:102D6200070E0464B7EF16F0B9EF16F0DFEF17F0B5
:102D7200066AF4EF17F001C0D9FF02C0DAFFDF30B4
:102D8200E832E832070B046E010E056E042ACCEF1E
:102D920016F0D8900536042ECAEF16F00550FF0A39
:102DA2008916F4EF17F001C0D9FF02C0DAFFDF3055
:102DB200E832E832070B046E010E056E042AE4EFD6
:102DC20016F0D8900536042EE2EF16F00550FF0AF1
:102DD2008A16F4EF17F001C0D9FF02C0DAFFDF3024
:102DE200E832E832070B046E010E056E042AFCEF8E
:102DF20016F0D8900536042EFAEF16F00550FF0AA9
:102E02008B16F4EF17F001C0D9FF02C0DAFFDF30F2
:102E1200E832E832070B046E010E056E042A14EF45
:102E220017F0D8900536042E12EF17F00550FF0A5E
:102E32008C16F4EF17F001C0D9FF02C0DAFFDF30C1
:102E4200E832E832070B046E010E056E042A2CEFFD
:102E520017F0D8900536042E2AEF17F00550FF0A16
:102E62008D16F4EF17F001C0D9FF02C0DAFFDF5070
:102E7200070B000AD8B4BCEF16F0010AD8B4D4EF9D
:102E820016F0030AD8B4ECEF16F0010AD8B404EF36
:102E920017F0070AD8B41CEF17F0B9EF16F001C00B
:102EA200D9FF02C0DAFFDF30E832E832070B046EE6
:102EB200010E056E042A60EF17F0D8900536042E35
:102EC2005EEF17F005508912F4EF17F001C0D9FF39
:102ED20002C0DAFFDF30E832E832070B046E010E7F
:102EE200056E042A77EF17F0D8900536042E75EF99
:102EF20017F005508A12F4EF17F001C0D9FF02C093
:102F0200DAFFDF30E832E832070B046E010E056E9D
:102F1200042A8EEF17F0D8900536042E8CEF17F0A6
:102F220005508B12F4EF17F001C0D9FF02C0DAFF8F
:102F3200DF30E832E832070B046E010E056E042A18
:102F4200A5EF17F0D8900536042EA3EF17F0055021
:102F52008C12F4EF17F001C0D9FF02C0DAFFDF30A4
:102F6200E832E832070B046E010E056E042ABCEF4C
:102F720017F0D8900536042EBAEF17F005508D12CF
:102F8200F4EF17F001C0D9FF02C0DAFFDF50070BE0
:102F9200000AD8B450EF17F0010AD8B467EF17F05F
:102FA200030AD8B47EEF17F0010AD8B495EF17F0F0
:102FB200070AD8B4ACEF17F0B9EF16F00350046E5D
:102FC200056A0550000AD8B4E9EF17F0B9EF16F018
:102FD2000450000AD8B434EF17F0010AD8B4C3EF92
:102FE20017F0B9EF16F0065012000001DD6F000174
:102FF200DD51D8B4FFEF17F001EF18F023EF18F00E
:10300200D8BF08EF18F006EF18F023EF18F0D5C07C
:10301200D9F0D6C0DAF0D7C0DBF0D8C0DCF0D91FC7
:10302200DA1FDB1FDC1FD92B000EDA23DB23DC23A4
:10303200D9C0DFF0DAC0E0F0DBC0E1F0DCC0E2F0E2
:103042002BEF18F0D5C0DFF0D6C0E0F0D7C0E1F02A
:10305200D8C0E2F0D551D611D711D811D8A434EF87
:1030620018F036EF18F040EF18F0000ED56F000E92
:10307200D66F000ED76F000ED86FD1EF18F0960EF4
:10308200DE6F4AEF18F0DE2BD890E233E133E03303
:10309200DF33000EDF15D96F000EE015DA6F000E78
:1030A200E115DB6FFE0EE215DC6FD951DA11DB118F
:1030B200DC11D8A45FEF18F061EF18F044EF18F0BC
:1030C2006FEF18F0DE2B010EDF27000EE023E12365
:1030D200E223D890E233E133E033DF33000EDF1531
:1030E200D96F000EE015DA6F000EE115DB6FFF0EEF
:1030F200E215DC6FD951DA11DB11DC11D8A484EFAF
:1031020018F086EF18F063EF18F08EEF18F0DE0774
:10311200D890DF37E037E137E237E1BF93EF18F0BD
:1031220095EF18F09DEF18F0020EDE619BEF18F09C
:103132009DEF18F088EF18F0DEB1A2EF18F0A4EFBF
:1031420018F0A5EF18F0E19FD890DE33DEC0D9F079
:10315200DA6BDB6BDC6BD9C0DCF0DB6BDA6BD96B67
:10316200D951DF13DA51E013DB51E113DC51E213E1
:10317200DD51D8B4BFEF18F0C1EF18F0C9EF18F065
:10318200D8BFC8EF18F0C6EF18F0C9EF18F0E28FF9
:10319200DFC0D5F0E0C0D6F0E1C0D7F0E2C0D8F091
:1031A2001200010E0001DA6FD551D611D8B4DCEF4E
:1031B20018F0DEEF18F0F7EF18F0D5C0D9FFD6C03F
:1031C200DAFFDF30E832E832070BD86F080ED86139
:1031D200EDEF18F0EFEF18F0F7EF18F0D751D8A491
:1031E200F5EF18F0F7EF18F086EF19F0DA6BA2EFAF
:1031F20019F0D751D96EDA6AD5C0E1FFD6C0E2FF25
:10320200E730E832E832070BD86F80CFD9F0D82BFD
:103212000DEF19F0D890D933D82F0BEF19F0000128
:10322200D951010BDF6EA2EF19F0D751D96EDA6ACC
:10323200D5C0E1FFD6C0E2FFE730E832E832070B43
:10324200D86F81CFD9F0D82B29EF19F0D890D93384
:10325200D82F27EF19F00001D951010BDF6EA2EF31
:1032620019F0D751D96EDA6AD5C0E1FFD6C0E2FFB4
:10327200E730E832E832070BD86F82CFD9F0D82B8B
:1032820045EF19F0D890D933D82F43EF19F0000148
:10329200D951010BDF6EA2EF19F0D751D96EDA6A5C
:1032A200D5C0E1FFD6C0E2FFE730E832E832070BD3
:1032B200D86F83CFD9F0D82B61EF19F0D890D933DA
:1032C200D82F5FEF19F00001D951010BDF6EA2EF89
:1032D20019F0D751D96EDA6AD5C0E1FFD6C0E2FF44
:1032E200E730E832E832070BD86F84CFD9F0D82B19
:1032F2007DEF19F0D890D933D82F7BEF19F0000168
:10330200D951010BDF6EA2EF19F0D5C0D9FFD6C09B
:10331200DAFFDF50070B000AD8B4FAEF18F0010AFF
:10332200D8B416EF19F0030AD8B432EF19F0010A33
:10333200D8B44EEF19F0070AD8B46AEF19F0F7EFD4
:1033420018F0DA5112000001E46BE251D8A4ACEF9C
:1033520019F0AEEF19F0B1EF19F0E56B2EEF1AF09C
:10336200E2C0E3F0010EE327E3C0DBF0DC6BE8EC44
:1033720025F00001E56FE2C0DBF0DC6BE8EC25F044
:103382000001E56FE46BE251E425E36F020EE327EF
:10339200E3C0DBF0DC6BE8EC25F00001E42B030E6C
:1033A200E465D6EF19F0D8EF19F0C4EF19F0270E43
:1033B2000001E36FF50EE82EFED7E32FFCD7E2C043
:1033C200DFF0380E0001E06F80EC25F00B0E0001FB
:1033D200E36FA50EE82EFED7E32FFCD7E2C0DFF0A5
:1033E200380E0001E06F80EC25F0420EE82EFED789
:1033F20000F000F0E2C0DFF0380E0001E06F80EC78
:1034020025F0E2C0DFF0010E0001E06F80EC25F054
:10341200E2C0DFF0020E0001E06F80EC25F0E2C0B6
:10342200DFF0060E0001E06F80EC25F0E2C0DFF075
:103432000C0E0001E06F80EC25F0E2C0DFF0280EF8
:103442000001E06F80EC25F0E2C0DFF0800E0001A9
:10345200E06F80EC25F00001E56FE55112000001FC
:10346200D735D835DE6FDE51D8A43AEF1AF03CEFEB
:103472001AF046EF1AF0000ED56F000ED66F000E4E
:10348200D76F000ED86FB3EF1AF0D5C0D9F0D6C0FF
:10349200DAF0D7C0DBF0D8C0DCF0200E56EF1AF01D
:1034A200D890DC33DB33DA33D933E82E51EF1AF01C
:1034B200D951DD6FD78FFF0ED517FF0ED617FF0E2E
:1034C200D717000ED817960EDE5FDEBF6DEF1AF02B
:1034D2006BEF1AF083EF1AF0DE51800A970FD8B023
:1034E20075EF1AF077EF1AF079EF1AF03CEF1AF055
:1034F200D890D833D733D633D533DE3F79EF1AF0AD
:103502009BEF1AF01F0EDE6589EF1AF08BEF1AF0AF
:1035120093EF1AF03CEF1AF0D890D537D637D73759
:10352200D837DE07DE51D8A499EF1AF09BEF1AF0D4
:103532008DEF1AF0DD51D8B4A1EF1AF0A3EF1AF013
:10354200ABEF1AF0D81FD71FD61FD56D000ED623AA
:10355200D723D823D5C0D5F0D6C0D6F0D7C0D7F060
:10356200D8C0D8F01200370E0001DF6F0D0EE06FE9
:1035720080EC25F00101966F370E0001E26F010E1B
:10358200E36F010EE46FB0EC20F00101966F370E8D
:103592000001DF6F7D51300FE06FB4EC25F00101C7
:1035A200966F370E0001DF6F7E51300FE06FB4EC83
:1035B20025F00101966F370E0001DF6F3A0EE06FC2
:1035C200B4EC25F00101966F370E0001DF6F7F51D9
:1035D200300FE06FB4EC25F00101966F370E000159
:1035E200DF6F8051300FE06FB4EC25F00101966F70
:1035F200370E0001DF6F3A0EE06FB4EC25F00101E7
:10360200966F370E0001DF6F8151300FE06FB4EC1F
:1036120025F00101966F370E0001DF6F8251300FE6
:10362200E06FB4EC25F00101966F370E8C6F020E3D
:103632008D6F060E8E6F210E8F6F8F51D8A4100ED4
:10364200906FFFEC20F00101966F370E0001E26FE0
:10365200010EE36F090EE46FB0EC20F00101966FEA
:1036620012000001E26BE36BE16BDB51DC11D8B4B9
:103672003DEF1BF03FEF1BF047EF1BF0DD51D8A4ED
:1036820045EF1BF047EF1BF04AEF1BF0E06BACEF8E
:103692001BF0E26BE16BE151DB25D56F000EDC2103
:1036A200D66F000ED76F39EC15F00001E12B030E37
:1036B200E1655EEF1BF060EF1BF04CEF1BF0E25197
:1036C200DB25D56F000EDC21D66F010ED76F39ECEA
:1036D20015F00001E36BE351DB25DE6F000EDC2108
:1036E200DF6F040EDE25D56F000EDF21D66FE40EEC
:1036F200D76FD2EC18F00001E405D8A483EF1BF0D9
:1037020085EF1BF098EF1BF0E251040D000EF3243D
:10371200DE6F010EF420DF6FE351DE25D96E000E5D
:10372200DF21DA6EDD51E16EE26ADFCFE7FFE32BE4
:10373200030EE3659FEF1BF0A1EF1BF06CEF1BF094
:10374200E22B030EE265A8EF1BF0AAEF1BF04BEF92
:103752001BF0010EE06FE0511200370E0B6E0D0EE2
:103762000C6E08EC27F00101966F370E0E6E010EFB
:103772000F6E010E106EE2EC21F00101966F370E12
:103782000B6E00017D51300F0C6E36EC27F00101FB
:10379200966F370E0B6E00017E51300F0C6E36ECB9
:1037A20027F00101966F370E0B6E3A0E0C6E36EC57
:1037B20027F00101966F370E0B6E00017F51300F1B
:1037C2000C6E36EC27F00101966F370E0B6E00017E
:1037D2008051300F0C6E36EC27F00101966F370ED8
:1037E2000B6E3A0E0C6E36EC27F00101966F370E17
:1037F2000B6E00018151300F0C6E36EC27F0010187
:10380200966F370E0B6E00018251300F0C6E36EC44
:1038120027F00101966F370E126E020E136E060E1E
:10382200146E210E156E1550D8A4100E166E98EC5B
:1038320021F00101966F370E0E6E010E0F6E090E0A
:10384200106EE2EC21F00101966F12000001863940
:103852000F0B300F0101536F000186510F0B300F18
:103862000101546F2F0E556F000187390F0B300F76
:103872000101566F000187510F0B300F0101576F85
:103882002F0E586F000188390F0B300F0101596F4D
:10389200000188510F0B300F01015A6F2D0E5B6F23
:1038A200000185390F0B300F01015C6F000185515A
:1038B2000F0B300F01015D6F3A0E5E6F000184390C
:1038C2000F0B300F01015F6F000184510F0B300F9E
:1038D2000101606F3A0E616F000183390F0B300FE7
:1038E2000101626F000183510F0B300F0101636F01
:1038F2000D0E646F1F0E886F010E896F4AEC28F05F
:10390200460E0001D66FD651D8A4100ED76F000E06
:10391200D96F060ED86F7FEC23F0530E0001D66FDD
:10392200010ED76F000ED96F120ED86F7FEC23F005
:10393200530E01018A6F010E8B6F1200000120EEFF
:1039420008F0D551D926D651DA22DFA0ABEF1CF010
:10395200ADEF1CF00DEF1DF0AB8820EE08F0D55155
:10396200D926D651DA22DFA2B9EF1CF0BBEF1CF048
:10397200DFEF1CF09D9AF28EF28C20EE0BF0D55107
:10398200D926D651DA22DECF8DF0DDCF8EF020EEB1
:103992000DF0D551D926D651DA22DECF8BF0DDCF0C
:1039A2008CF020EE0FF0D551D926D651DA22DECF97
:1039B20089F0DDCF8AF09D8AEDEF1CF020EE08F051
:1039C200D551D926D651DA22DFB2EAEF1CF0ECEF5C
:1039D2001CF0EDEF1CF09D9A20EE08F0D551D9268F
:1039E200D651DA22DFA4F8EF1CF0FAEF1CF0FDEF5B
:1039F2001CF0AB8C0DEF1DF020EE08F0D551D9264E
:103A0200D651DA22DFB408EF1DF00AEF1DF00DEFF8
:103A12001DF0AB9C0DEF1DF012000001D76F39EFC6
:103A22001DF092807BEF1DF092827BEF1DF092845D
:103A32007BEF1DF092867BEF1DF0928A7BEF1DF0EB
:103A420096807BEF1DF096827BEF1DF096847BEFD4
:103A52001DF093847BEF1DF093867BEF1DF0938224
:103A62007BEF1DF093887BEF1DF093807BEF1DF0C1
:103A72000001D751D56FD66BD651000AD8B444EFA6
:103A82001DF07BEF1DF0D551000AD8B412EF1DF0E6
:103A9200010AD8B415EF1DF0030AD8B418EF1DF0CF
:103AA200010AD8B41BEF1DF0070AD8B41EEF1DF0AF
:103AB200010AD8B421EF1DF0030AD8B424EF1DF097
:103AC200010AD8B427EF1DF00F0AD8B42AEF1DF06F
:103AD200010AD8B42DEF1DF0030AD8B430EF1DF05F
:103AE200010AD8B433EF1DF0070AD8B436EF1DF03F
:103AF2007BEF1DF012002650D8A482EF1DF084EF58
:103B02001DF092EF1DF03C0E266E2550D8A48CEFCE
:103B12001DF08EEF1DF091EF1DF03C0E256E240678
:103B22002506260626C001F0026A000E046E0A0E61
:103B3200036E3FEC1EF001500001816F26C001F0C0
:103B4200026A000E046E0A0E036EB3EC1FF00150FF
:103B52000001826F25C001F0026A000E046E0A0E97
:103B6200036E3FEC1EF0015000017F6F25C001F093
:103B7200026A000E046E0A0E036EB3EC1FF00150CF
:103B82000001806F24C001F0026A000E046E0A0E6A
:103B9200036E3FEC1EF0015000017D6F24C001F066
:103BA200026A000E046E0A0E036EB3EC1FF001509F
:103BB20000017E6FAEEC1BF0120069EC2AF00009E6
:103BC200D8B4E6EF1DF0E8EF1DF022EF1EF0F6EF9D
:103BD2001DF0EDEC2AF03EEF1EF0E9EC2AF03EEF8C
:103BE2001EF0E1EC2AF03EEF1EF06FC0DCF002D8CE
:103BF20005EF1EF00500FA6E00016651FD6E675179
:103C0200FE6EFF6AFA5012000001DD6FDE6BDE51BC
:103C1200000AD8B40FEF1EF0F2EF1DF0DD51010AD9
:103C2200D8B4F2EF1DF0030AD8B4EAEF1DF0010A8E
:103C3200D8B4EEEF1DF0070AD8B4F2EF1DF0F2EFA0
:103C42001DF000017C9120EE77F0DF50DF2AD96E63
:103C5200DA6ADF50C8EC2AF000017807D8A07907A9
:103C620078517911D8A438EF1EF03AEF1EF03DEFEB
:103C72001EF0060E3EEF1EF0030E1200066A04BE90
:103C820047EF1EF045EF1EF04DEF1EF0036C041ED1
:103C9200D8B0042A010E066E02BE54EF1EF052EF97
:103CA2001EF05AEF1EF0016C021ED8B0022A010E5D
:103CB200061A000E086E000E076E03500410D8B4E8
:103CC20065EF1EF067EF1EF08FEF1EF0010E056E1E
:103CD2006FEF1EF0D89003360436052A04AE74EF57
:103CE2001EF076EF1EF06BEF1EF0D8900736083606
:103CF2000350015C04500258D8A082EF1EF084EFFA
:103D02001EF089EF1EF00350015E0450025A078034
:103D1200D89004320332052E76EF1EF00650D8B446
:103D220095EF1EF097EF1EF09BEF1EF0076C081E3A
:103D3200D8B0082A07C001F008C002F01200920EA3
:103D420053EC2AF03E6E000E0001E46F3EC0E5F037
:103D5200700E6FEC24F0020E0101936F040E926F4D
:103D6200BA0EE82EFED7922FFCD7932FFAD7000077
:103D7200300E0001DC6F010EDD6F000EDE6F310EC2
:103D8200DF6FABEC26F00101966F000E0001E46FCD
:103D920031C0E5F0500E6FEC24F0020E0101936F7A
:103DA200040E926FBA0EE82EFED7922FFCD7932FF5
:103DB200FAD70000370E01018C6F010E8D6F010ED4
:103DC2008E6F2C0E8F6F8F51D8A4100E906FFFEC58
:103DD20020F00101966F370E8C6F020E8D6F010E6F
:103DE2008E6F350E8F6F8F51D8A4100E906FFFEC2F
:103DF20020F00101966F1200000120EE06F0D5516D
:103E0200D926D651DA22DFA009EF1FF00BEF1FF0FF
:103E120057EF1FF0AC8A20EE06F0D551D926D651C5
:103E2200DA22DFA217EF1FF019EF1FF029EF1FF0C0
:103E32009D98F28EF28C20EE09F0D551D926D651FA
:103E4200DA22DECF8FF0DDCF90F09D8837EF1FF0C2
:103E520020EE06F0D551D926D651DA22DFB234EF60
:103E62001FF036EF1FF037EF1FF09D9820EE06F09F
:103E7200D551D926D651DA22DFA442EF1FF044EF02
:103E82001FF047EF1FF0AC8C57EF1FF020EE06F04B
:103E9200D551D926D651DA22DFB452EF1FF054EFB2
:103EA2001FF057EF1FF0AC9C57EF1FF012000001FC
:103EB200D951DA11D8A460EF1FF062EF1FF065EF5D
:103EC2001FF0DC6BB1EF1FF0C29020EE04F0D9516D
:103ED200D926DA51DA22DF50DB6FDB47DB47DB47DB
:103EE200C050DB19C70BDB19C06E20EE05F0D951AB
:103EF200D926DA51DA22DF50DB6FC050DB19F80B1A
:103F0200DB19C06E20EE03F0D951D926DA51DA223C
:103F1200DF50DB6FDB47DB47C250DB19C30BDB191A
:103F2200C26E20EE03F0D951D926DA51DA22DF50DF
:103F32000EEC1DF0D9C0D5F0DAC0D6F004EC2AF0B0
:103F4200D9C0D5F0DAC0D6F0DEEC27F0D9C0D5F072
:103F5200DAC0D6F0B7EC27F0C280010E0001DC6FA8
:103F6200DC511200066A02BEBBEF1FF0B9EF1FF070
:103F7200C1EF1FF0016C021ED8B0022A010E066EBC
:103F820004BEC8EF1FF0C6EF1FF0CCEF1FF0036CAA
:103F9200041ED8B0042A03500410D8B4D3EF1FF083
:103FA200D5EF1FF0F9EF1FF0010E056EDDEF1FF0E8
:103FB200D89003360436052A04AEE2EF1FF0E4EF90
:103FC2001FF0D9EF1FF00350015C04500258D8A033
:103FD200EDEF1FF0EFEF1FF0F3EF1FF00350015E64
:103FE2000450025AD89004320332052EE4EF1FF037
:103FF2000650D8B4FFEF1FF001EF20F005EF20F0DC
:10400200016C021ED8B0022A01C001F002C002F007
:1040120012000001D551D611D8A412EF20F014EFEE
:1040220020F016EF20F05EEF20F020EE07F0D551E1
:10403200D926D651DA22DE04D8A422EF20F024EFCA
:1040420020F037EF20F0C350C4CFD8F0D96BD8C0DE
:10405200D9F0D86BD827000ED923D751D96EDA6A96
:10406200D8C0DEFFD9C0DDFF5EEF20F020EE07F002
:10407200D551D926D651DA22DF50D8A443EF20F009
:1040820045EF20F024EF20F0C350C4CFD8F0D96B15
:10409200D8C0D9F0D86BD827000ED923060EDA6F14
:1040A200D935D933D833DA2F51EF20F0D751D96E21
:1040B200DA6AD8C0DEFFD9C0DDFF120000017751F5
:1040C200D96EDA6AFDEC2AF0DF6E0001772B7807F1
:1040D200D8A0790778517911D8B472EF20F074EF33
:1040E20020F079EF20F0F5EC2AF0050EAFEF20F08A
:1040F2007C8784EF20F0D5EC2AF0AFEF20F0D9ECEA
:104102002AF0AFEF20F06CC0DCF002D892EF20F082
:104112000500FA6E6051FD6E6151FE6EFF6AFA5043
:1041220012000001DD6FDE6BDE51000AD8B49CEF95
:1041320020F080EF20F0DD51010AD8B480EF20F0AA
:10414200030AD8B47CEF20F0010AD8B47CEF20F047
:10415200070AD8B480EF20F080EF20F012000001AF
:10416200E56BE407E251D8A4B9EF20F0BBEF20F0F1
:10417200EAEF20F0E56BFDEF20F0E2C0DFF0E45162
:10418200800FE06F80EC25F00001E56FFDEF20F07D
:10419200E2C0DFF0E451C00FE06F80EC25F00001D7
:1041A200E56FFDEF20F0E2C0DFF0E451940FE06F25
:1041B20080EC25F00001E56FFDEF20F0E2C0DFF0BA
:1041C200E451D40FE06F80EC25F00001E56FFDEFC4
:1041D20020F0E351010AD8B4BEEF20F0030AD8B4AC
:1041E200C9EF20F0010AD8B4D4EF20F0070AD8B4FE
:1041F200DFEF20F0FDEF20F0E55112000101916B9D
:104202008C51D8A407EF21F009EF21F00CEF21F037
:10421200916B4AEF21F08CC1E2F08DC1E3F08EC1C7
:10422200E4F0B0EC20F031EF21F08CC1DFF08FC16F
:10423200F6FF90C1F7FF000EF86E0F0EF76403D081
:104242000800F55005D0F6CFE9FFF7CFEAFFEF50AF
:104252000001E06FB4EC25F00101916F8F4B902BC0
:104262008FC1F6FF90C1F7FF000EF86E0F0EF764D4
:1042720003D00800F55005D0F6CFE9FFF7CFEAFFEB
:10428200EF500009D8A448EF21F04AEF21F016EFD1
:1042920021F00101915112000001DB51D8A454EF29
:1042A20021F056EF21F059EF21F0DE6B96EF21F06D
:1042B200DBC0DDF0020EDD27DDC0D5F0D66BDC51B0
:1042C200010BD76F39EC15F00001DE6FDBC0DDF0BA
:1042D200030EDD27DDC0D5F0D66BD890DC31010BA3
:1042E200D76F39EC15F00001DE6FDBC0DDF0040E94
:1042F200DD27DDC0D5F0D66BDC41E8423F0B010B78
:10430200D76F39EC15F00001DE6FDBC0DDF0050E72
:10431200DD27DDC0D5F0D66BDC39E8461F0B010B7B
:10432200D76F39EC15F00001DE6FDE511200176A0B
:104332001250D8A49FEF21F0A1EF21F0A4EF21F0B9
:10434200176AE0EF21F012C00EF013C00FF014C094
:1043520010F0E2EC21F0C7EF21F012C00BF015C013
:10436200F6FF16C0F7FF000EF86E0F0EF76403D0CB
:104372000800F55005D0F6CFE9FFF7CFEAFFEF507E
:104382000C6E36EC27F0176E154A162A15C0F6FF8A
:1043920016C0F7FF000EF86E0F0EF76403D0080088
:1043A200F55005D0F6CFE9FFF7CFEAFFEF5000094D
:1043B200D8A4DEEF21F0E0EF21F0AEEF21F01750AC
:1043C2001200116A10060E50D8A4EAEF21F0ECEFA9
:1043D20021F017EF22F0116A2AEF22F00EC00BF043
:1043E2001050800F0C6E08EC27F0116E2AEF22F0AD
:1043F2000EC00BF01050C00F0C6E08EC27F0116EBF
:104402002AEF22F00EC00BF01050940F0C6E08EC45
:1044120027F0116E2AEF22F00EC00BF01050D40FCD
:104422000C6E08EC27F0116E2AEF22F00F50010AF1
:10443200D8B4EFEF21F0030AD8B4F9EF21F0010A62
:10444200D8B403EF22F0070AD8B40DEF22F02AEF16
:1044520022F0115012000001D951DA11D8A434EF20
:1044620022F036EF22F039EF22F0DB6B72EF22F00E
:10447200D59ED9C0D5F0DAC0D6F027EC28F0D9C045
:10448200D5F0DAC0D6F0FEEC22F0D9C0D5F0DAC011
:10449200D6F04CEC26F0D9C0D5F0DAC0D6F0000147
:1044A20020EE04F0D951D926DA51DA22DECFD7F044
:1044B200DDCFD8F07CEC26F0000120EE04F0D951DB
:1044C200D926DA51DA22DECF9BF0DDCF9CF0D9C0BB
:1044D200D5F0DAC0D6F0E8EC29F0D58E010E000155
:1044E200DB6FDB5112000750D8A47AEF22F07CEF89
:1044F20022F07FEF22F00A6AB8EF22F007C009F03B
:10450200020E092609C001F0026A0850010B036E6F
:104512009DEC16F00A6E07C009F0030E092609C0C9
:1045220001F0026AD8900830010B036E9DEC16F080
:104532000A6E07C009F0040E092609C001F0026ADA
:104542000840E8423F0B010B036E9DEC16F00A6E29
:1045520007C009F0050E092609C001F0026A0838F1
:10456200E8461F0B010B036E9DEC16F00A6E0A5013
:104572001200272ACD0E016E000E036E000E026E8F
:1045820095EC29F00001C86F2704D8A4CBEF22F0E4
:10459200CDEF22F0DFEF22F0650E016E010E026E0A
:1045A20022C003F023C004F015EC25F00001C86F0F
:1045B200BD50F00B0909BD6EFDEF22F0020E271867
:1045C200D8A4E6EF22F0E8EF22F0FDEF22F0650E2C
:1045D200016E010E026E22502008036E2350D8A0F5
:1045E200E82A4E08046E15EC25F00001C86FBD5094
:1045F200F00B0809BD6E276A120025EF23F0D59A49
:104602003FEF23F0D58A0CEF23F0D5883FEF23F05C
:10461200D5983FEF23F020EE06F0D551D926D6519A
:10462200DA22DFB417EF23F01AEF23F0010E1BEFAB
:1046320023F0000E000AD8B409EF23F0010AD8B41F
:1046420006EF23F03FEF23F0000120EE06F0D551F4
:10465200D926D651DA22DFB231EF23F034EF23F03C
:10466200010E35EF23F0000E000AD8B400EF23F05C
:10467200010AD8B403EF23F03FEF23F01200000148
:10468200E46BE56BDF51E011D8A44AEF23F04CEF65
:1046920023F04FEF23F0E36B7DEF23F0E46BE45163
:1046A200DF25DB6F000EE021DC6FE8EC25F0000176
:1046B200E42B030EE46560EF23F062EF23F050EF8A
:1046C20023F0E56BE551DF25E16F000EE021E26F9B
:1046D200040EE125D56F000EE221D66FD1EC13F066
:1046E2000001E52B030EE56579EF23F07BEF23F064
:1046F20063EF23F0010EE36FE35112000001D65184
:10470200D711D8A487EF23F089EF23F08CEF23F0A1
:10471200DC6BBBEF23F0000EDE6F000EDD6FAEEF41
:1047220023F0DD51D625DA6FDE51D721DB6FDAC0F7
:10473200F6FFDBC0F7FF000EF86E0F0EF76403D032
:104742000800F55005D0F6CFE9FFF7CFEAFFEF50AA
:1047520012EC2AF00001DD4BDE2BD851DD5DD95180
:10476200DE59D8A0B7EF23F0B9EF23F092EF23F090
:10477200010EDC6FDC51120000017C87CEEF23F0CA
:10478200E5EC2AF0F9EF23F0FBEC2AF0030EF9EF47
:1047920023F0E1EC2AF0F9EF23F06CC0DCF002D850
:1047A200DCEF23F00500FA6E6051FD6E6151FE6E82
:1047B200FF6AFA5012000001DD6FDE6BDE51000A63
:1047C200D8B4E6EF23F0CAEF23F0DD51010AD8B4E2
:1047D200CAEF23F0030AD8B4C1EF23F0010AD8B418
:1047E200C1EF23F0070AD8B4C5EF23F0CAEF23F0D4
:1047F20012000001E56F0001E66B0001E55136ECA5
:1048020024F00009D8B408EF24F00AEF24F0FEEFF8
:1048120023F0B40E0001D96F520EDA6FE60EDB6F91
:1048220073EC2AF0E40E0001D56F000ED76F010E73
:10483200D66FC9EC29F0000E0001D96F000EDA6FB5
:10484200000EDB6F000EDC6F5FEC2AF0D1EC2AF079
:104852001BEC29F0E806D8B431EF24F033EF24F052
:1048620029EF24F00001E65112000001D56F010E7C
:104872000001D66F7CB540EF24F042EF24F06DEFDB
:1048820024F0D5C076F07C937C857C910E0E7A6FF5
:10489200010E756FF40E746F7C87060E606F560EF4
:1048A200616F6C6B060E626F560E636F6D6B060E58
:1048B200646F560E656F6E6B060E666F560E676FEF
:1048C2006F6B020E686F560E696F706B0FEC2BF0F8
:1048D200B9EC29F00001D66BD65112000001E66F47
:1048E2000001E65136EC24F00009D8B47BEF24F045
:1048F2007DEF24F071EF24F0640E0001D96F520EA7
:10490200DA6FE50EDB6F73EC2AF0E40E0001D56F6F
:10491200000ED76F010ED66FC9EC29F0000E000110
:10492200D96F000EDA6F000EDB6F000EDC6F5FECEA
:104932002AF0D1EC2AF01BEC29F0E806D8B4A4EF57
:1049420024F0A6EF24F09CEF24F01200060EF66E7F
:10495200500EF76E000EF86E01EE00F010EE47F00A
:104962000900F5CFEEFFE550E150FAE1640EF66E74
:10497200550EF76E000EF86E00EE32F010EE0CF0EF
:104982000900F5CFEEFFE550E150FAE101EE47F004
:10499200290EEE6AE806FDE100EE60F0750EEE6AA1
:1049A200E806FDE100EE22F0100EEE6AE806FDE1F7
:1049B2003F903F92000129EF08F00FEC2BF000012D
:1049C2007CA1E6EF24F0E8EF24F0F5EF24F069ECA7
:1049D2002AF00009D8B4F0EF24F0F2EF24F0F5EF5A
:1049E20024F00F0E00017A6F00017A51020DF3508C
:1049F200010FDF6FDFC0F6FF100EF76EF86A0900D5
:104A0200F5CFE0F00900F5CFE1F002D812EF25F082
:104A12000500FA6EE051FD6EE151FE6EFF6AFA503A
:104A2200120000017A6F120001500210D8A41CEF8C
:104A320025F01EEF25F021EF25F0066A49EF25F05B
:104A420003C007F004C008F001C0D9FF02C0DAFFBA
:104A5200DF50D8A42FEF25F031EF25F037EF25F006
:104A620007C0BEFF08C0BFFF47EF25F001C0D9FF56
:104A720002C0DAFFDE04D8A441EF25F043EF25F0AF
:104A820047EF25F007C0BBFF08C0BCFF010E066E52
:104A920006501200000E0001E46FD00EFAEC23F073
:104AA2000001836F010EE46FD00EFAEC23F00001D7
:104AB200846F020EE46FD00EFAEC23F00001856FD2
:104AC200040EE46FD00EFAEC23F00001866F050E9F
:104AD200E46FD00EFAEC23F00001876F060EE46F4C
:104AE200D00EFAEC23F00001886F20EE83F000EE86
:104AF200E7F0050EDBCFEBFFE806FCE21200000157
:104B0200DF51D8A487EF25F089EF25F08CEF25F04F
:104B1200E16BB2EF25F0DFC0D5F0D66B000ED76F98
:104B220039EC15F00001E16FDFC0DBF0E0390F0B6B
:104B3200DC6F4DEC21F00001E16FDFC0DBF064ECD3
:104B420027F00001E16FDFC0DBF0E0C0DCF04DECEC
:104B520021F00001E16FDFC0DBF064EC27F000011F
:104B6200E16FE15112000001DF51D8A4BBEF25F043
:104B7200BDEF25F0C0EF25F0E16BE6EF25F0DFC0D9
:104B8200D5F0D66B010ED76F39EC15F00001E16F4D
:104B9200DFC0DBF0E0390F0BDC6F4DEC21F00001E0
:104BA200E16FDFC0DBF064EC27F00001E16FDFC0F2
:104BB200DBF0E0C0DCF04DEC21F00001E16FDFC082
:104BC200DBF064EC27F00001E16FE1511200010E0D
:104BD2000001DE6FDB51DC11D8B4F2EF25F0F4EF07
:104BE20025F005EF26F0DBC0D9FFDCC0DAFFDF30AD
:104BF200E832E832070BDD6F070EDD6503EF26F0C2
:104C020005EF26F008EF26F0DE6B17EF26F0DBC08B
:104C1200D5F0DCC0D6F0D1EC13F0DBC0D5F0DCC0AF
:104C2200D6F0000E0001D76F39EC15F00001DE510D
:104C3200120000017C91020E7B6F28EF26F0E5EC5A
:104C42002AF04BEF26F0E1EC2AF04BEF26F06EC093
:104C5200DCF002D836EF26F00500FA6E6451FD6EE4
:104C62006551FE6EFF6AFA5012000001DD6FDE6BC5
:104C7200DE51000AD8B440EF26F024EF26F0DD51D1
:104C8200020AD8B420EF26F0010AD8B420EF26F0A9
:104C920024EF26F0120061EF26F0D59620EE03F005
:104CA200D551D926D651DA22DF50D76FD550D71930
:104CB200F80BD719D56E7BEF26F0D5867BEF26F061
:104CC200000120EE06F0D551D926D651DA22DFB600
:104CD2006DEF26F070EF26F0010E71EF26F0000E58
:104CE200000AD8B44EEF26F0010AD8B45EEF26F0DF
:104CF2007BEF26F012000001D551D611D8A484EF23
:104D020026F086EF26F088EF26F0AAEF26F020EEB6
:104D120006F0D551D926D651DA22DFA093EF26F03C
:104D220095EF26F099EF26F0D7C0D6FFAAEF26F02E
:104D320020EE06F0D551D926D651DA22DFB0A4EF03
:104D420026F0A6EF26F0AAEF26F0D851D76E95EFFF
:104D520026F012000001DC51DD11D8A4B3EF26F0D9
:104D6200B5EF26F0B8EF26F0E06BD8EF26F0DCC006
:104D7200D8F0DDC0D9F0DEC0DAF0EAEC28F0DCC011
:104D8200D5F0DDC0D6F0F6EC29F0C2B2CBEF26F0BA
:104D9200CDEF26F0C6EF26F0DCC0D5F0DDC0D6F0B0
:104DA200DFC0D7F00AEC20F0010E0001E06FE05105
:104DB20012000001D86F0001D551D611D8B4E4EF2A
:104DC20026F0E6EF26F0F8EF26F0D851020DF35068
:104DD200600FD96EDA6AD5C0DEFFD6C0DDFFD851CA
:104DE2006C0FD96EDA6AD7C0DFFF07EF27F0D85110
:104DF200020DF350600FD96EDA6A060EDE6E560EA1
:104E0200DD6ED8516C0FD96EDA6ADF6A12000B5070
:104E1200D8A40EEF27F010EF27F013EF27F00D6A5A
:104E220034EF27F00BC001F0026A000E036E9DEC16
:104E320016F00D6E0BC007F00C380F0B086E74ECF9
:104E420022F00D6E0BC007F08FEC27F00D6E0BC039
:104E520007F00CC008F074EC22F00D6E0BC007F0E6
:104E62008FEC27F00D6E0D5012000B50D8A43CEFC2
:104E720027F03EEF27F041EF27F00D6A62EF27F0AF
:104E82000BC001F0026A010E036E9DEC16F00D6E6E
:104E92000BC007F00C380F0B086E74EC22F00D6E8D
:104EA2000BC007F08FEC27F00D6E0BC007F00CC0A3
:104EB20008F074EC22F00D6E0BC007F08FEC27F0B7
:104EC2000D6E0D5012000001DB51D8A46BEF27F0DC
:104ED2006DEF27F070EF27F0DD6B8DEF27F0DBC071
:104EE200DCF0010EDC27DCC0D5F0D66B010ED76FEB
:104EF20039EC15F0030EE82EFED70000DBC0DCF023
:104F0200010E0001DC27DCC0D5F0D66B000ED76F96
:104F120039EC15F00001DD6FDD5112000750D8A405
:104F220095EF27F097EF27F09AEF27F0096AB5EF90
:104F320027F007C008F0010E082608C001F0026A37
:104F4200010E036E9DEC16F0030EE82EFED7000054
:104F520007C008F0010E082608C001F0026A000E20
:104F6200036E9DEC16F0096E09501200C1EF27F096
:104F7200C198C19ADDEF27F0C188C18ADDEF27F021
:104F8200000120EE06F0D551D926D651DA22DF50A3
:104F9200D76FD86BD851000AD8B4D2EF27F0DDEF23
:104FA20027F0D751000AD8B4B9EF27F0010AD8B4D4
:104FB200BDEF27F0DDEF27F01200E6EF27F0C09EED
:104FC20002EF28F0C08E02EF28F0000120EE07F079
:104FD200D551D926D651DA22DF50D76FD86BD851A6
:104FE200000AD8B4F7EF27F002EF28F0D751000AF1
:104FF200D8B4E0EF27F0010AD8B4E3EF27F002EFCC
:1050020028F012003738392F3435362A3132332D11
:1050120023303D2B8081828384898A8B8C8D92936D
:105022009495968025000001000100000000000018
:10503200000000000000000005030001020A122A1D
:0B504200434B534CF83A0103DC0B0415
:10504E002FEF28F0D58C49EF28F0D59C49EF28F0AA
:10505E00000120EE06F0D551D926D651DA22DFB066
:10506E003BEF28F03EEF28F0010E3FEF28F0000E48
:10507E00000AD8B42CEF28F0010AD8B429EF28F092
:10508E0049EF28F01200010188518911D8A452EF7E
:10509E0028F054EF28F056EF28F06CEF28F0AB9E76
:1050AE0090EC28F088C17CF189C17DF10DEC0DF0FA
:1050BE0088C1D5F089C1D6F0FDEC1EF088C1D5F0BF
:1050CE0089C1D6F09FEC1CF0AB8E12000001E26F8E
:1050DE00010E0001E36F7CB377EF28F079EF28F033
:1050EE008DEF28F07C83E36BE251D8B481EF28F08A
:1050FE0083EF28F087EF28F0010E7A6F89EF28F002
:10510E00020E7A6F09EC2BF0D9EC29F00001E35175
:10511E0012000001D451F80B0209D46FD451C70B01
:10512E003009D46FD48DD49FD40EDB6FDC6BE8ECDA
:10513E0025F00001DF6FD351F80B0209D36F380E43
:10514E00D313D38DD39FD30EDB6FDC6BE8EC25F03E
:10515E000001DF1312000001DC51D96EDA6A020E73
:10516E00D926DF50D56FDC51D96EDA6ADECFD6F094
:10517E00DDCFD7F0C9EC29F0000E0001D96F000E7B
:10518E00DA6F000EDB6F73EC2AF0020E1200F2944F
:10519E0000019C51D76E9BC0D6FF9D519E11D8B475
:1051AE00DBEF28F0DDEF28F0E9EF28F002D8E9EF89
:1051BE0028F00500FA6E9D51FD6E9E51FE6EFF6A3F
:1051CE00FA50120012000001D851D911D8A4F2EFF2
:1051DE0028F0F4EF28F0F6EF28F002EF29F0DAC00D
:1051EE00DBF0DB47DB47C250DB19C30BDB19C26EAA
:1051FE00DA510EEC1DF012009E940001BF51C01149
:10520E00D8B40CEF29F00EEF29F01AEF29F002D8DE
:10521E001AEF29F00500FA6EBF51FD6EC051FE6EF9
:10522E00FF6AFA5012001200010E0001D56F7CB316
:10523E0023EF29F025EF29F02FEF29F07C957669E1
:10524E000FEC2BF00BEC2BF00DEC2BF07BC0D5F014
:10525E000001D5511200DCC0D5F0000E0001D76F51
:10526E00010ED66FC9EC29F0000E0001D96F000EA9
:10527E00DA6F000EDB6F73EC2AF0040E1200DCC046
:10528E00D5F0000E0001D76F020ED66FC9EC29F0D3
:10529E00000E0001D96F000EDA6F000EDB6F73EC9B
:1052AE002AF0020E1200DCC0D5F0000E0001D76FFE
:1052BE00010ED66FC9EC29F0000E0001D96F000E59
:1052CE00DA6F000EDB6F73EC2AF0020E1200DCC0F8
:1052DE00D5F0000E0001D76F020ED66FC9EC29F083
:1052EE00000E0001D96F000EDA6F000EDB6F73EC4B
:1052FE002AF0040E12000001D551D611D8A48AEF5F
:10530E0029F08CEF29F08FEF29F0D76B93EF29F06E
:10531E00D59EF29A010ED76FD75112000150D8A424
:10532E009BEF29F09DEF29F0A0EF29F0046AA6EF7C
:10533E0029F00350CF6E02C0CEFF010E046E045052
:10534E0012008D6A8C6A896A8A6A8B6A070E966E5B
:10535E0092689368946895687E681F0E7F6E7C6A6B
:10536E00F18E1200C6BABEEF29F0C0EF29F0C8EFD9
:10537E0029F0800EC76E080EC66EC56A130EC86E73
:10538E00C68A120000017CA7CFEF29F0D1EF29F0D9
:10539E00D8EF29F0D5C077F0D6C078F0D7C079F025
:1053AE007C971200DFEF29F086EC2AF0DEEC24F079
:1053BE0000017CB3E5EF29F0E7EF29F0DBEF29F0F0
:1053CE001200F29AF294F28EF28CD5C0D9FFD6C0AA
:1053DE00DAFFDECF9DF0DDCF9EF0F28A12000001E3
:1053EE00D551D611D8A4FEEF29F000EF2AF002EF26
:1053FE002AF003EF2AF0C28212009D9C9E9CF28E30
:10540E00F28CD5C0D9FFD6C0DAFFDECFC1F0DDCF2A
:10541E00C2F09D8C12000001D56FACA219EF2AF0DC
:10542E001BEF2AF014EF2AF09D88D5C0ADFF1200B5
:10543E00016EF2900150D8A427EF2AF029EF2AF03E
:10544E002BEF2AF02BEF2AF01200016EF290015092
:10545E00D8A434EF2AF036EF2AF038EF2AF038EFDE
:10546E002AF01200016EF2900150D8A441EF2AF0FA
:10547E0043EF2AF045EF2AF045EF2AF01200016EB5
:10548E00F2900150D8A44EEF2AF050EF2AF052EFCE
:10549E002AF052EF2AF012000001E76F000E000111
:1054AE00E46FE751FAEC23F00001E86FE8511200C7
:1054BE00D9C0D5F0DAC0D6F0DBC0D7F0020EDAECE8
:1054CE0026F01200C5BC6EEF2AF071EF2AF0010E25
:1054DE0072EF2AF0000E1200D9C0D5F0DAC0D6F065
:1054EE00DBC0D7F0000EDAEC26F01200800EC76E8D
:1054FE00080EC66EC56A130EC86EC69A12009EA618
:10550E008BEF2AF08DEF2AF086EF2AF012000001C1
:10551E007C8176510109C8EC2AF0050E12007DEC53
:10552E002AF0A8EC29F0CDEC2AF0120000017C81C3
:10553E007651C8EC2AF0030E1200A192000192518E
:10554E00B36E91C0B2FF12009E9000019851CF6EC3
:10555E0097C0CEFF120009010101011B04232B335A
:10556E003B1400017C91FFEC2AF0040E12000001A6
:10557E007C937B6B0E0E120000017C937B6B0E0EE8
:10558E0012000001D56FD5C0C9FF1200300ED36EC8
:10559E009B6A1200000E6DEC28F01200F8EC2AF057
:1055AE00090E1200F8EC2AF00A0E1200F5EC2AF0A1
:1055BE00050E120005EC2BF0000E120007EC2BF07E
:1055CE00010E120007EC2BF0020E120007EC2BF06E
:1055DE00010E12009E92C3C0CCFF1200C59AC58860
:1055EE001200C58AC58812009E861200C95012008C
:1055FE00C5861200050E1200010E1200C58412009F
:10560E00C5821200C58012009D961200C69A120025
:10561E009E9612009E9612009E961200A196120061
:10562E00F0921200F0901200F29212009D98120069
:0A563E00A19012009E9C12001200C1
:020000040030CA
:0E000000FF021F1EFF8B85FF0FC00FE00F4099
:00000001FF
